:020000040800F2
:10000000C006002089010008290C00089708000894
:10001000E10A00081D0700085D1A00080000000042
:10002000000000000000000000000000591200085D
:100030003907000800000000BD0F00088118000803
:10004000A3010008A3010008A3010008A301000800
:10005000A3010008A3010008A3010008A3010008F0
:10006000A3010008A3010008A3010008A3010008E0
:10007000A3010008A3010008A3010008A3010008D0
:10008000A3010008A3010008A3010008A3010008C0
:10009000A3010008A3010008A3010008A3010008B0
:1000A000A3010008A3010008A3010008A3010008A0
:1000B000D5180008A3010008A3010008A301000847
:1000C000A3010008A3010008A3010008A301000880
:1000D000A3010008A3010008A3010008A301000870
:1000E000A3010008A3010008A301000800F002F822
:1000F00000F03AF80AA090E8000C82448344AAF188
:100100000107DA4501D100F02FF8AFF2090EBAE885
:100110000F0013F0010F18BFFB1A43F0010318473B
:10012000582C0000782C0000103A24BF78C878C101
:10013000FAD8520724BF30C830C144BF04680C60ED
:10014000704700000023002400250026103A28BF35
:1001500078C1FBD8520728BF30C148BF0B60704739
:100160001FB51FBD10B510BD00F0C3F91146FFF754
:10017000F7FF01F075FC00F0E1F903B4FFF7F2FFBF
:1001800003BC00F0E9F9000009488047094800472E
:10019000FEE7FEE7FEE7FEE7FEE7FEE7FEE7FEE737
:1001A000FEE7FEE704480549054A064B7047000094
:1001B00085180008ED000008C0000020C0060020DF
:1001C000C0020020C002002010B5203AC0F00B8011
:1001D000B1E81850203AA0E81850B1E81850A0E84B
:1001E0001850BFF4F5AF5FEA027C24BFB1E81850A5
:1001F000A0E8185044BF18C918C0BDE810405FEA15
:10020000827C24BF51F8043B40F8043B08BF704790
:10021000D20728BF31F8023B48BF11F8012B28BF95
:1002200020F8023B48BF00F8012B7047014900F05D
:10023000DDB800003400002010B503681C1404EB86
:1002400021449BB289B2194494FBF2F302FB13439D
:1002500094FBF2F401EB034393FBF2F102FB113147
:1002600093FBF2F301E05B1E11440029FBDB01600C
:1002700003EB044010BDF0B504464FF0FF3585B0E8
:100280000068049060680290A0680390E0680190A4
:1002900020690090666906F18040B0F1004F7CD87B
:1002A0003C22002104A8FFF7C7FF3C22014602A818
:1002B000FFF7C2FF1822014603A8FFF7BDFF411E4A
:1002C00040F2B55201A8FFF7B7FF0C220746684677
:1002D0000021FFF7B1FF414B00EB870030440026BF
:1002E0007B4411E0511A01910099491C02290091A7
:1002F00002D00C2908D105E0810705D00199491CDD
:10030000019101E0401C00960099019A595C9142CC
:10031000E8DD0099012906D11C2A04D1810702D009
:100320000221CDE90016A0F146018B293CD2DDE97E
:100330000061002202E09F5C521C3944B242FADBA9
:10034000012E02DD820700D0491E40F2B55340F273
:100350006D16C21700EB927292105A4300F003031D
:1003600003FB062283070A4400D1521E039E02EBC0
:100370004203049F06EBC303029EC3EB031306EB89
:100380008303174E33441E149BB2C6EB0616C3EB11
:100390000313B60007EB830300E005E006EB13460A
:1003A00066F31F43360C02D0284605B0F0BD80C46A
:1003B000029E40C4039E40C4019E761C44F80C6B10
:1003C000009E44E902600720521C92FBF0F600FBFD
:1003D000162084E823001846E7E70000862A00007C
:1003E000A039CEFD704770477047000070B50C46CD
:1003F000016800204A1C3ED03C22B1FBF2F302FB14
:100400001313B1FBF2F12360B1FBF2F302FB131300
:10041000B1FBF2F118226360B1FBF2F302FB13139C
:10042000B1FBF2F146F2E0320A440721A360B2FBCD
:10043000F1F301FB132140F2B553B2FBF3F5A161D7
:10044000B2FBF3F103FB15228900B2F5B77F08D3A5
:100450009B10521EB2FBF3F52944B2FBF3F503FBEC
:1004600015220F4BE261616189077B440CD03B2A66
:100470000AD3521C08E02C21204600F013F801207A
:10048000E0600AE0521A401C195C9142FAD9521CF1
:10049000C4E903204FF0FF302062204670BD000009
:1004A000FC2800004FF0000200B513469446964623
:1004B000203922BFA0E80C50A0E80C50B1F1200177
:1004C000BFF4F7AF090728BFA0E80C5048BF0CC025
:1004D0005DF804EB890028BF40F8042B08BF704783
:1004E00048BF20F8022B11F0804F18BF00F8012BF5
:1004F0007047754600F02CF8AE4605006946534635
:1005000020F00700854618B020B5FFF74BFEBDE888
:1005100020404FF000064FF000074FF000084FF06A
:10052000000B21F00701AC46ACE8C009ACE8C009FB
:10053000ACE8C009ACE8C0098D46704710B5044668
:10054000AFF300802046BDE81040FFF716BE000064
:10055000004870476000002001491820ABBEFEE74C
:1005600026000200704700002DE9F05F434DDFF8E0
:1005700010B100262878DFF80C81434C4FF4004975
:100580004FF4807A092833D14946404600F072F989
:1005900058B904206870C82000F0CFF82089401CAA
:1005A00000B220813C2800D126815146584600F0F7
:1005B00061F958B903206870C82000F0BEF8E088DF
:1005C000401C00B2E080182800D1E6804FF4804142
:1005D000404600F04FF958B905206870C82000F077
:1005E000ACF86089401C00B260813C2800D1668173
:1005F0002878082840D1A878012770B900F0C8FAF7
:10060000224801882180418861808188A180C18839
:10061000E180008920816681AF704946404600F044
:1006200029F950B96F70C82000F087F86088401C25
:1006300000B260800D2800D167805146584600F016
:1006400019F930B96E70C82000F077F82088401C86
:1006500020804FF48041404600F00CF900280BD177
:1006600002206870C82000F068F8A088401C00B222
:10067000A080202800D1A780BDE8F09F00000020C6
:1006800000080140000C0140280000200400002068
:1006900010B58CB01548B0F90010A1F26C7106913C
:1006A000B0F90210491E0591B0F904100491B0F997
:1006B00006100391B0F908100291B0F90A000190F8
:1006C00001A8FFF7D8FD044600F0E0FC00F5E1408A
:1006D000A04201D100F02AF80821054800F0CAF82C
:1006E000002801D100F01CF80CB010BD280000203B
:1006F000000C014008B503490844009000980088A8
:1007000008BD0000006C004008B5034A104400908A
:100710000098016008BD0000006C0040FEE700008A
:100720001021014800F0AFB8000C01401021014831
:1007300000F0A7B8000C0140704700B502464FF426
:100740007A7302E0184600F004F8521E501CF9D1EA
:1007500000BD00EBC000C1004FF0E020416100216E
:100760008161052101610169C903FCD50421016191
:1007700070472DE9F0410022CC7804F00F03E40625
:1007800001D58C7823430C784FF00F0714F0FF0F3E
:100790004FF0010C1CD005680CFA02F40E882640BC
:1007A000A64211D1960007FA06F825EA080503FAD1
:1007B00006F848EA0505CE78282E02D0482E02D049
:1007C00002E0446100E00461521C082AE4D30560A1
:1007D0000A88FF2A1ED94568002202F108060CFA91
:1007E00006F40E882640A64210D1960007FA06F8B5
:1007F00025EA080503FA06F848EA0505CE78282E0A
:1008000000D14461CE78482E00D10461521C082AE0
:10081000E3D34560BDE8F081F0B5154C002801DA5E
:10082000E36900E06368C0F30346420D120185B23C
:10083000C0F301579540032F07D0C2020CD5032205
:10084000B240934343F0706209E023F07062636842
:1008500023F07063636002E0AB4343F0706201B168
:100860002A43002801DAE261F0BD6260F0BD0000B9
:10087000000001400246002092680A4200D0012098
:1008800070474161704701617047002A01D00161E2
:10089000704741617047FEE72DE9F05F4C4DDFF88E
:1008A00034B14D4F287800264C4C4FF400494FF49A
:1008B000807A06283ED149463846FFF7DBFF4FF0E5
:1008C000010880B985F80180C820FFF736FF00F0E5
:1008D0005FF96088401C00B260800D2801D1A4F847
:1008E000028000F07BF951465846FFF7C3FF50B92C
:1008F0006E70C820FFF721FF00F04AF92088401CE5
:10090000208000F06BF94FF480413846FFF7B2FFCA
:1009100080B902206870C820FFF70FFF00F038F997
:10092000A088401C00B2A080202801D1A4F8048037
:1009300000F054F92878072848D149463846FFF78F
:1009400099FF90B904206870C820FFF7F6FE00F008
:100950001FF92089401C00B220813C2800D126814B
:1009600000F03CF91E4800F097F851465846FFF752
:1009700081FF90B903206870C820FFF7DEFE00F009
:1009800007F9E088401C00B2E080182800D1E6801A
:1009900000F024F9134800F05BF84FF4804138462A
:1009A000FFF768FF002811D105206870C820FFF705
:1009B000C4FE00F0EDF86089401C00B260813C2864
:1009C00000D16681BDE8F05F00F008B9BDE8F09F96
:1009D0000000002000080140000C0140040000203D
:1009E000CDCC8C3F0000AA401CB501210D2000F0A9
:1009F000F5FA01211348FFF70FFF48248DF807404F
:100A00004FF44070ADF8040001A90F48FFF7B1FEA4
:100A10008DF803404EF20800ADF800000B4C69461B
:100A20002046FFF7A6FE10218DF803104FF4447105
:100A3000ADF8001003218DF8021069462046FFF73B
:100A400098FE1CBD0002300000080140000C01406F
:100A50002DE9F041002400254FF07E56062101F0DB
:100A60004EFE074611E0E0B200F09EFD0220FFF7C7
:100A700064FE641CE01704EB507020F00700241A99
:100A80003146284601F058FC05463846294601F013
:100A90005EFDE8D3BDE8F0812DE9F041002400259A
:100AA0004FF07E56062101F02AFE074611E0E0B223
:100AB00000F018FE0220FFF740FE641CE01704EB74
:100AC000507020F00700241A3146284601F034FC0B
:100AD00005463846294601F03AFDE8D3BDE8F081E5
:100AE000FEE7000038B50121042000F077FA49F64E
:100AF0001E44ADF8004010208DF8030003208DF84F
:100B00000200054D69462846FFF733FE2146284678
:100B1000FFF7B7FE38BD00000008014010B5012105
:100B2000080700F04DFA0121C80600F049FA01203B
:100B300000F03EFA0420FFF7DDFD4AF2A554A04282
:100B40001FD0012000F070FA412000F055FA012872
:100B5000FAD1000200F082FA012000F079FA00F0E8
:100B6000D3FA00F0C9FA47F6FF7000F0B5FA00F0CA
:100B7000C3FA00F033F82146BDE810400420FFF727
:100B8000C3BD00F0C1FABDE8104000F0B5BA0000E6
:100B900000B58DB000F07AFA00F5E1400C900CA899
:100BA000FFF744FB01462C2201A8FFF70DFB069935
:100BB000094801F26C7101800599491C4180049932
:100BC00081800399C180029901810199418100F0DE
:100BD00093FA0DB000BD00000400002000B58BB0FA
:100BE0001048B0F90010A1F26C710591B0F9021033
:100BF000491E0491B0F904100391B0F90610029156
:100C0000B0F908100191B0F90A0000906846FFF7AA
:100C100032FBA0F5E14000F04FFA00F06DFA0BB0A6
:100C200000BD0000040000207047000070B50F23D5
:100C3000C27801260178002A1ED0144A126802F4F4
:100C4000E062C2F5E062120AC2F10404D3404578C2
:100C5000A54082781A402A43120101F1E02181F86F
:100C60000024007800F01F018E404009800000F150
:100C7000E020C0F8006170BD01F01F008640480907
:100C8000800000F1E020C0F8806170BD0CED00E054
:100C900070B500250021284600F0F6F80024002059
:100CA00000F074F9641CE4B2802CF8D36D1CEDB232
:100CB000082DEFD370BD0000F8B50121082000F029
:100CC0008DF914208DF8030003208DF802004FF4F5
:100CD0008074ADF800400B4E69463046FFF749FD81
:100CE0006500ADF8005069463046FFF742FD01222D
:100CF00021463046FFF7C9FD012229463046FFF75D
:100D0000C4FDF8BD000C01402DE9F0470746002462
:100D1000134D4FF080094FF40078AE1529FA04F214
:100D20003A4041462846FFF7B0FD012231462846A9
:100D3000FFF7ABFD002231462846FFF7A6FD641CF5
:100D4000E4B2082CEAD3012231462846FFF79DFD84
:100D500031462846BDE8F0470022FFF796BD000067
:100D6000000C014070B501220B4D5402214628466B
:100D7000FFF78BFD0122160231462846FFF785FD5D
:100D8000002221462846FFF780FD31462846BDE86F
:100D900070400022FFF779BD000C014070B50A4D8C
:100DA0004FF40074002221462846FFF76EFD012211
:100DB00011022846FFF769FD21462846BDE870402C
:100DC0000122FFF762BD0000000C014010B50021B8
:100DD0004FF47A720020401C9042FCD3491C91428F
:100DE000F8D3FFF769FFAE2000F0BFF8D52000F080
:100DF000BCF8802000F0B9F8A82000F0B6F83F2039
:100E000000F0B3F8D32000F0B0F8002000F0ADF807
:100E1000402000F0AAF8A12000F0A7F8C82000F0B8
:100E2000A4F8DA2000F0A1F8122000F09EF881204A
:100E300000F09BF8CF2000F098F8D92000F095F84A
:100E4000F12000F092F8DB2000F08FF8302000F065
:100E50008CF8A42000F089F8A62000F086F88D20F8
:100E600000F083F8142000F080F8AF2000F07DF847
:100E7000BDE81040FFF70CBF0346012000E05843D7
:100E8000491E4A1CFBD1704710B50C4640F0B0001B
:100E900000F06BF8102040EA141000F066F804F03F
:100EA0000F00BDE8104000F060B800002DE9F041EF
:100EB0001546491E461ECF007006F9B2000EFFF718
:100EC000E3FF00240E48203D00EB0515285D00F0EF
:100ED0005DF8641CE4B2082CF8D3012000EB460056
:100EE000F9B2C0B2FFF7D0FF00242819007A00F051
:100EF0004DF8641CE4B2082CF7D3BDE8F081000083
:100F00007A2700082DE9F04781460F4690461E4695
:100F100000240A2512E0311B491E0A20FFF7ACFF0E
:100F2000B8FBF0F2B2FBF5F005FB10223819C1B2A4
:100F300030324846FFF7BAFF641CE4B2B442EAD349
:100F4000BDE8F0872DE9F04107460D46164600241E
:100F500006E02819C1B23846FFF7A8FF641CE4B2C6
:100F6000325D002AF5D1BDE8F08110B50446FFF7E7
:100F7000F9FE7820FFF7C8FE0020FFF7C5FE2046E7
:100F8000FFF7C2FEBDE81040FFF708BF10B50446EA
:100F9000FFF7E8FE7820FFF7B7FE4020FFF7B4FE2A
:100FA0002046FFF7B1FEBDE81040FFF7F7BE000096
:100FB000014908627047000000000E4270470000BF
:100FC000054A002903D0D1690143D1617047D16935
:100FD0008143D1617047000000100240054A00299A
:100FE00003D0916901439161704791698143916197
:100FF0007047000000100240034600205909094ACA
:1010000001290AD002290AD0516A03F01F020123E4
:1010100093400B4200D0012070471168F5E7116A38
:10102000F3E7000000100240084900220A7001F8AE
:101030002029012805D0042802D1052081F82000AC
:101040007047012081F82000704700002010024006
:1010500001490860704700003C04424202490A6AA4
:1010600002430A62704700000010024002480188F3
:1010700041F01001018070470428004002480188B7
:1010800021F01001018070470428004003480088C7
:101090000249091F098840EA014070471C280040A6
:1010A000044800880007010B0248001D008808431F
:1010B000704700001028004000B50246FFF7D6FF39
:1010C0000449100C0880081D02805DF804EBFFF74E
:1010D000D5BF00001828004000B50246FFF7C6FF44
:1010E0000449C2F303400880081D02805DF804EB48
:1010F000FFF7C4BF08280040024801888906FCD5D4
:1011000070470000042800400448018821F00801CD
:10111000018001880907FCD57047000004280040C1
:101120002DE9F0470D464FF400714748FFF7A2FB49
:10113000002862D1C820FFF700FBDFF810910C26D1
:101140001F2799F800003B244FF0170808283FD0CC
:1011500009283DD03E48062D3AD2DFE805F00C03C1
:1011600012251B304188491E09B2418001B94680D1
:10117000FFF734FD2CE00188491E0180FFF72EFDAA
:1011800026E08188491E09B2818001B98780FFF776
:1011900025FD1DE00189491E0AB20281521C00D1C1
:1011A0000481FFF71BFD13E0C188491E09B2C1800D
:1011B000491C01D1A0F80680FFF710FD08E0418925
:1011C000491E09B24181491C00D14481FFF706FD47
:1011D00099F80000082801D009280ED11D48062DD5
:1011E0000BD2DFE805F00C03102018294188491EB6
:1011F00009B24180002900D14680BDE8F08701880E
:10120000491E0180F9E78188491E09B281800029C1
:10121000F3D18780F1E70189491E09B20181491C98
:10122000EBD10481E9E7C188491E09B2C180491C9C
:10123000E3D1A0F80680E0E74189491E09B2418167
:10124000491CDAD14481D8E70008014000000020A1
:101250000400002028000020704700F001B80000C2
:101260000CB50022019200922748016841F48031B8
:1012700001604FF4A063016801F40031009101990D
:10128000491C0191009911B901999942F3D1016862
:10129000890302D50121009100E000920099012903
:1012A00030D11A490A6842F010020A600A6822F036
:1012B00003020A600A6842F002020A604168416063
:1012C00041684160416841F480614160416821F4B6
:1012D0007C114160416841F4E8114160016841F0CE
:1012E0008071016001688901FCD5416821F003012A
:1012F0004160416841F0020141604168C1F38101F0
:101300000229FAD10CBD000000100240002002406A
:101310002DE9F0414C4D6968491C69604FF48061CA
:101320004A4C4E008F004FF40048082814D2DFE8E2
:1013300000F004142434445464742046FFF7A3FAE4
:1013400031462046FFF79DFA39462046FFF799FAC5
:1013500041462046FFF795FA6EE02046FFF793FAE4
:1013600031462046FFF78FFA39462046FFF789FAC3
:1013700041462046FFF785FA5EE02046FFF781FAF6
:1013800031462046FFF77FFA39462046FFF779FAC3
:1013900041462046FFF775FA4EE02046FFF771FA06
:1013A00031462046FFF76FFA39462046FFF76BFAC1
:1013B00041462046FFF765FA3EE02046FFF761FA16
:1013C00031462046FFF75DFA39462046FFF75BFAC3
:1013D00041462046FFF755FA2EE02046FFF751FA26
:1013E00031462046FFF74DFA39462046FFF74BFAC3
:1013F00041462046FFF747FA1EE02046FFF741FA34
:1014000031462046FFF73DFA39462046FFF739FAC4
:1014100041462046FFF737FA0EE02046FFF733FA41
:1014200031462046FFF72DFA39462046FFF729FAC4
:1014300041462046FFF727FA68683C2801D1012081
:101440006860BDE8F0810000100000200008014045
:1014500070B5534D2968491C2960524C082815D293
:10146000DFE800F00415263748596A7B0221204640
:10147000FFF709FA04212046FFF703FA0821204666
:10148000FFF7FFF910212046FFF7FBF975E0022175
:101490002046FFF7F8F904212046FFF7F4F9082168
:1014A0002046FFF7EEF910212046FFF7EAF964E045
:1014B00002212046FFF7E5F904212046FFF7E3F972
:1014C00008212046FFF7DDF910212046FFF7D9F962
:1014D00053E002212046FFF7D4F904212046FFF70C
:1014E000D2F908212046FFF7CEF910212046FFF758
:1014F000C8F942E002212046FFF7C3F90421204643
:10150000FFF7BFF908212046FFF7BDF9102120465B
:10151000FFF7B7F931E002212046FFF7B2F90421C5
:101520002046FFF7AEF908212046FFF7ACF910215D
:101530002046FFF7A8F920E002212046FFF7A1F995
:1015400004212046FFF79DF908212046FFF799F96D
:1015500010212046FFF797F90FE002212046FFF700
:1015600092F904212046FFF78CF908212046FFF765
:1015700088F910212046FFF786F928683C280DD10C
:10158000287AFFF7C5FEA868401CC11700EB51710F
:1015900021F00701401AA8600120286070BD0000FA
:1015A00010000020000801402DE9F0414FF4806157
:1015B0004B4C4D008E004F0108287DD2DFE800F033
:1015C0000415263748596A7B2046FFF75CF92946FF
:1015D0002046FFF756F931462046FFF752F93946C3
:1015E0002046BDE8F041FFF74CB92046FFF74BF924
:1015F00029462046FFF747F931462046FFF741F9D3
:1016000039462046BDE8F041FFF73BB92046FFF7D9
:1016100038F929462046FFF736F931462046FFF7CC
:1016200030F939462046BDE8F041FFF72AB9204697
:10163000FFF727F929462046FFF725F931462046CE
:10164000FFF721F939462046BDE8F041FFF719B907
:101650002046FFF716F929462046FFF712F93146D2
:101660002046FFF710F939462046BDE8F041FFF764
:1016700008B92046FFF705F929462046FFF701F98A
:1016800031462046FFF7FFF839462046BDE8F041D5
:10169000FFF7F9B82046FFF7F4F829462046FFF790
:1016A000F0F831462046FFF7ECF839462046BDE811
:1016B000F041FFF7E8B800E010E02046FFF7E3F85C
:1016C00029462046FFF7DDF831462046FFF7D9F8D6
:1016D00039462046BDE8F041FFF7D5B8BDE8F081B6
:1016E0000008014010B54E4C08287CD2DFE800F01D
:1016F0000416283A4C5E708402212046FFF7C3F896
:1017000004212046FFF7BDF808212046FFF7B9F86D
:101710002046BDE810401021FFF7B3B80221204653
:10172000FFF7B1F804212046FFF7ADF80821204665
:10173000FFF7A7F82046BDE810401021FFF7A1B839
:1017400002212046FFF79DF804212046FFF79BF871
:1017500008212046FFF795F82046BDE810401021EB
:10176000FFF78FB802212046FFF78BF804212046AF
:10177000FFF789F808212046FFF785F82046BDE8E5
:1017800010401021FFF77DB802212046FFF779F8BD
:1017900004212046FFF775F808212046FFF773F86B
:1017A0002046BDE810401021FFF76BB8022120460B
:1017B000FFF767F804212046FFF763F80821204669
:1017C000FFF761F82046BDE810401021FFF75BB835
:1017D00002212046FFF755F804212046FFF751F873
:1017E0000821204600E019E0FFF74BF82046BDE84D
:1017F00010401021FFF747B802212046FFF743F8B9
:1018000004212046FFF73DF808212046FFF739F86C
:101810002046BDE810401021FFF735B810BD00008C
:101820000008014010B54FF400511348FFF722F8AB
:10183000002811D1C820FEF780FF1048002102784F
:101840000B2A09D2DFE802F0060808080808090C8C
:101850000F1216000621017010BD0721017010BD86
:101860000821017010BD0921017010BD81700A218D
:10187000017010BD017010BD000C0140000000207F
:101880007047000010B50F48016841F00101016088
:1018900041680D4A1140416001680C4A11400160E5
:1018A000016821F480210160416821F4FE0141605A
:1018B0004FF41F018160FFF7D0FC05494FF0006035
:1018C000086010BD001002400000FFF8FFFFF6FEA8
:1018D00008ED00E010B501218C07204600F05AF811
:1018E000002817D00121204600F045F80A4C606816
:1018F000401C60603C280DD1207AFFF7A9FDA0684C
:10190000401CC11700EB517121F00701401AA06083
:101910000020606010BD00001C0000207FB5012188
:101920000846FFF74DFB41F61F40ADF804000024C8
:10193000ADF806409120ADF80800ADF80A408507E3
:1019400001A9284600F03CF801221146284600F083
:101950002DF80121284600F011F81C208DF8000018
:1019600001208DF801008DF802408DF803006846D3
:10197000FFF75CF97FBDC94301827047002904D09D
:10198000018841F0010101807047018821F00101C7
:101990000180704702460020138A0B4092890A405A
:1019A000002B02D0002A00D001207047002A03D06B
:1019B00082890A438281704782898A438281704783
:1019C00030B502881B4C1C4DA0420DD0A8420BD054
:1019D000B0F1804F08D0194B984205D0184B98426F
:1019E00002D0184B984203D122F070034A881A4360
:1019F000154B984206D0154B984203D022F4407301
:101A0000CA881A4302808A8882850A880285A04291
:101A10000AD0A84208D00E4A904205D00D4A904202
:101A200002D00D4A904201D1097A018601218182BA
:101A300030BD0000002C0140003401400004004093
:101A400000080040000C004000100040001400405E
:101A5000004001400044014000480140FEE7000012
:101A6000FFF7B4F90121C4A20846FFF76BFAC6A23A
:101A700001210220FFF766FAC7A201210320FFF728
:101A800061FAC7A201210420FFF75CFAFFF746F8CC
:101A9000FFF728F8FEF7A8FFFFF77AF8C24D0423F6
:101AA0000621B5F900200120FFF72CFAB5F9022034
:101AB00002230B210120FFF725FAB5F904200223A8
:101AC0000E210120FFF71EFA0223B5F90620062198
:101AD0001846FFF717FA0223B5F90820092118461E
:101AE000FFF710FA0223B5F90A200C211846FFF778
:101AF00009FAB5F9080000F093FCFEF7CDFFB5F93F
:101B00000A0000F08DFCFEF7A3FFFFF707FFDFF8E8
:101B10009CB2A74CDFF89C8247F6FF77DFF89892DB
:101B2000DFF898A2FFF734F8FFF77CFEFEF7B4FE6B
:101B30009BF800102078FFF7F3FAFEF715FDFEF78B
:101B4000A7FD207808282BD0092829D0B5F9002036
:101B5000042306210120FFF7D5F9B5F9022002235D
:101B60000B210120FFF7CEF9B5F9042002230E2145
:101B70000120FFF7C7F90223B5F906200621184610
:101B8000FFF7C0F90223B5F9082009211846FFF72D
:101B9000B9F90223B5F90A200C211846FFF7B2F96A
:101BA000207820B986A206210320FFF7CBF9207800
:101BB000062804D185A206210320FFF7C3F9207867
:101BC000072804D184A206210320FFF7BBF920785F
:101BD0000A2857D183A206210320FFF7B3F9844EC8
:101BE000FFF720FEFEF7D4FFFEF756FEB5F9002002
:101BF000042306210120FFF785F9B5F9022002230D
:101C00000B210120FFF77EF9B5F9042002230E21F4
:101C10000120FFF777F90223B5F9062006211846BF
:101C2000FFF770F90223B5F9082009211846FFF7DC
:101C300069F90223B5F90A200C211846FFF762F969
:101C4000FFF72EFA381A00F066FA00224B4600F031
:101C5000DDF80022534600F071FA00F02FFA024638
:101C60000A2306210420FFF74DF996F90000401CD5
:101C7000C11700EB917121F00301401A30702078F8
:101C80000A28ADD0207808282ED15AA20621032098
:101C9000FFF758F9B8F90020042306210120FFF7C7
:101CA00031F9B8F9022002230B210120FFF72AF9AC
:101CB000B8F9042002230E210120FFF723F90223A3
:101CC000B8F9062006211846FFF71CF90223B8F9D7
:101CD000082009211846FFF715F90223B8F90A2050
:101CE0000C211846FFF70EF9207809282ED144A2BE
:101CF00006210320FFF726F9B8F900200423062166
:101D00000120FFF7FFF8B8F9022002230B21012080
:101D1000FFF7F8F8B8F9042002230E210120FFF79D
:101D2000F1F80223B8F9062006211846FFF7EAF871
:101D30000223B8F9082009211846FFF7E3F8022327
:101D4000B8F90A200C211846FFF7DCF8FFF7A8F9CC
:101D5000381A00F0E0F900224B4600F057F8002254
:101D6000534600F0EBF900F0A9F902460A230621D8
:101D70000420FFF7C7F8D5E6446174653A5858580F
:101D8000582D58582D58580054696D653A58583A8E
:101D900058583A58580000004D6F64653A000000EA
:101DA000446976203A000000040000200100002071
:101DB0000000002028000020C0FFDF4000388F40D6
:101DC0004E4F4E4520202020202000004441544505
:101DD000202020202020200054494D452020202074
:101DE000202020004D555349432020202020200052
:101DF0001C000020414C41524D5F4441544520009D
:101E0000414C41524D5F54494D4520002DE9C041A0
:101E100030B4DFF8A0C23CEA111418BF3CEA131436
:101E200000F0EC8081EA03051CEA111444EAD57441
:101E300018BF1CEA131500F0C780A4EB05044FF08F
:101E4000004545EAC12145EAC32341EA505143EA2E
:101E5000525304F17F74994204F500344FEAC020D4
:101E60004FEAC22208BF904200F09C804FEA1365FF
:101E70000FF24016765D4FEA134506FB05F7C7F1F2
:101E8000807706FB07F74FEAD737A7FB0368764250
:101E9000C8F58038A7FB06CE38BFA8F1010807FBBC
:101EA00008E64FF0000EA6FB028CE6FB03CEDCF149
:101EB000000CCEF1004E38BFAEF1010EA6FB0C585F
:101EC0004FF000074FF00005E6FB0E87A1FB08C6A8
:101ED000A0FB07CE16EB0E0645F10005E1FB0765FA
:101EE00015F1E04E7EBFA4F580345FEA46066D41F1
:101EF00016F1800745F100054FEA17274FEA0666FD
:101F000047EA0567A6F1DE46B6F1805F4FEA152580
:101F10001FD9384624F0010C05EBC471BCF1FE6FEB
:101F200001EB0C1102D8F0BCBDE8008124425CBF7B
:101F300001F5801E9EEAC47F02D4F0BCBDE800819A
:101F4000244238D4F0BCA1F1C041BDE8004100F00A
:101F5000EDB94FEAD22242EA43524FEAD323A7FB1C
:101F600002864FEAD02040EA415007FB03661EEA92
:101F70000E0F4FEAD12105FB026658BFA6EB0056B3
:101F8000B6EB00564FEA520E4EEAC37E18EB0E0E29
:101F900056EB530EBDD518EB02085E417F1C55F180
:101FA0000005B6E74FF480154FF000074FF000062C
:101FB0004FF00008ADE7F0BC4FF0000001F1C04168
:101FC00001F00041BDE8008111EA0C1F0CEA131575
:101FD00000D00CE013EA0C1F00F025804FF0000049
:101FE000F0BC81EA030101F00041BDE80081F0BCD2
:101FF000BDE8004181EA030100F098B9F0BCBDE8FA
:10200000004170B500F044F9097EFC3E00F007B8CD
:1020100081EA03014FF0000001F00041704781EABE
:10202000030100F083B9F0BCBDE800414FF00000AF
:1020300021497047FFFDFBF9F7F5F4F2F0EEEDEB07
:10204000E9E8E6E4E3E1E0DEDDDBDAD8D7D5D4D3B6
:10205000D1D0CFCDCCCBCAC8C7C6C5C4C2C1C0BF02
:10206000BEBDBCBBBAB9B8B7B6B5B4B3B2B1B0AF08
:10207000AEADACABAAA9A8A8A7A6A5A4A3A3A2A1EC
:10208000A09F9F9E9D9C9C9B9A99999897979695A7
:1020900095949393929191908F8F8E8E8D8C8C8B43
:1020A0008B8A8989888887878685858484838382CB
:1020B000828181800000FF070000F87F4FEA115302
:1020C000A3F58063D3F11E03A8BFD3F1200C08DB76
:1020D0004FF0004242EAC12252EA505232FA03F073
:1020E000704709420BD4102BC4BF0020704703F582
:1020F000787CBCF1FF3F05D04FF0FF3070474FF0C8
:102100000000704770B500F0C3F800BF499224800A
:1021100000207047F0E7B0FA80F310FA03F10AD01C
:10212000C3F11D0303F580634FEA41504FEA0352A8
:1021300002EBD12170474FF000007047DFF848C133
:1021400070B51CEA111E1EBF1CEA13159EEA0C0F87
:1021500095EA0C0F00F06F8081EA030423EA4C1328
:102160004EEAD47E21EA4C1141F4801143F48013ED
:10217000AE44A1FB024CA0FB0365AEF17F7E361995
:1021800055EB0C05A1FB034C4CF10003A0FB021C1A
:1021900016EB0C06654153F10003094218BF46F0E7
:1021A000010613F4007F0BD14FEA03314FEA0530EB
:1021B000340341EA155140EA16506FF003020AE079
:1021C0004FEAC3214FEAC520F40241EA555140EAE3
:1021D00056506FF0020202EB2E4201EB025585EAE7
:1021E000CE710AD05FEA440C18BF24F0004450F1CD
:1021F000000041F1000120EAD47040F2FE7C62450B
:1022000000D270BDA84214BF4FF080444FF040444C
:10221000002E08BF0024BEF1806FA8BFA1F1C0410D
:10222000BDE8704080F282804FF0000001F1C041B3
:1022300001F0004170479EEA0C0F0CEA131518BF1D
:1022400095EA0C0F06D04FF0000081EA030E0EF065
:10225000004170BD00F01CF88900013E00F007B895
:1022600000F009B84FEA430C5FEA5C5C08D081EAF1
:10227000030100F05BB84FEA410C5FEA5C5CF6D109
:102280004FF00000014970470000FF070000F87F91
:102290000EF1020E2EF0030E5EF8046B364205D4EA
:1022A000012A43EB030515F5001F12D8012841EB65
:1022B000010C1CF5001F0CD80ED14FEAD17C15F58E
:1022C000001F0CEB4C0C0CF1020C08BF4CEBD37C48
:1022D00004E04FF0080C01E04FEAD37C0CEB4C0516
:1022E00026FA05F606F00706B6F1040C06D20EEB48
:1022F000860CBDE870404CF0010C6047DFE80CF044
:10230000090B02024FF000414FF00000A1F500213F
:1023100070BD19461046012851EB010418BFD4F5D1
:10232000001484BF002001F0004170BD0808A0F532
:1023300000114FEA3101704790EA010F48BF81F068
:10234000004100F13C81421A3CBF801A89184FEAD3
:10235000D0524FF07F4C1CEA410FA2EBD15318BF73
:102360009CEA026F00F03B804FF0004C4CEA0020EA
:102370004CEA012121FA03FC10EB0C0C1ED202F1F5
:10238000FF325FEA1C2040EBC25038BF70471CF0A0
:102390007F0F4FEA400C18BFBCF17F4F38BF70472A
:1023A000C3F12003994008BF20F00100BCF17F4F2A
:1023B00038BF7047A0F1C04000F0C4B84FEA3C00FD
:1023C000000A40EBC25028BF1CF0FF0F4FEA400C40
:1023D000E6D018BFBCF17F4F38BF7047EAE79CEAF0
:1023E000026F05D010EA5C0F08BF00F00040704794
:1023F00010B500F061F800BF64FBBE3E014800F07C
:102400004CB900BF0000C07F401058BFC0F1404031
:10241000491058BFC1F140418142EFF3008070473D
:1024200010F0004148BF4042B0FA80F310FA03F2C6
:10243000C3F19D030BD051EAC35101EB12205306A7
:1024400038BF704700F1010008BF20F0010070475D
:1024500050EA010C00F113801CF5000F58BFBCF5C9
:10246000000F01D48842704707D710F5000F58BFFE
:1024700011F5000F15D488427047894270471CF54A
:10248000000F04D5BCF5000FF7D5814270474FF01F
:10249000807C1CEB400F38BF1CEB410F01D2814206
:1024A000704710B500F008F8922449004FF0005032
:1024B0004FF08051FFF7A8BF0EF1020E2EF0030E71
:1024C0005EF8044B244204D44FEA4102B2F17F4F3C
:1024D00011D84FEA4003B3F17F4F0CD80ED14FEA29
:1024E000D07CB2F17F4F0CEB4C0C0CF1020C08BF0E
:1024F0004CEBD17C04E04FF0080C01E04FEAD17CBA
:102500000CEB4C0324FA03F404F00704B4F1040CBC
:1025100006D20EEB840CBDE810404CF0010C604775
:10252000DFE80CF0070802024FF00040A0F5800041
:1025300010BD0846420018BFD2F1807288BF00F07B
:10254000004010BDFF2141EAD050C005704751EA5C
:10255000000C00F113801CF5000F58BFBCF5000FF4
:1025600001D48142704707D711F5000F58BF10F50D
:10257000000F15D481427047894270471CF5000F47
:1025800004D5BCF5000FF7D5884270474FF0807C2A
:102590001CEB410F38BF1CEB400F01D28842704743
:1025A00080EA010081EA000180EA0100FFF779BFBB
:1025B00090EA010F48BF81F000413FF5C4AE421AD6
:1025C00004D882F00042A0EB020011444FEAD0523E
:1025D0004FF07F4C1CEA410FA2EBD15318BF9CEA8D
:1025E000026F4AD04FF0004C4CEA00204CEA012127
:1025F00021FA03FCB0EB0C0C0FD412F0FE0F36D016
:102600005FEA4C001DD5001240EBC25038BF704746
:102610001CF03F0F18BF70470BE0A2F101025FEA08
:102620001C2040EBC25038BF70471CF07F0F18BF12
:102630007047C3F12003994014BF401E20F00100F1
:10264000704780084FEA122308BF7047B0FA80FC39
:10265000A2EB0C02CCF1280C60FA0CF093EA122FDA
:1026600004BF00EBC25070474FEAC3707047130AB3
:102670005FEADC1008BF7047F6E79CEA026F04D0FF
:1026800010EA5C0F08BF0020704710B5FFF714FF79
:1026900040DFF63E81F0004070470CF00F03092B3D
:1026A00008BF082000F051800A2B0BD0082B18BF60
:1026B000704708BF1CF0400F0AD04FF000004FF0E9
:1026C000000170471CF0400F18BF4FF000407047EA
:1026D0001CF0100F08D020F0704300F07F4242EA57
:1026E000D3014FEA4370704700F0604021F07F4211
:1026F00042EA000201F07F4040EA727070474FF0FA
:10270000FF0212EAD0521CBF92F0FF038B42C2BFFD
:10271000D14200EBC1507047002A0AD0002B0BD0E9
:10272000002900F00040A4BF40F0FE4040F400004B
:10273000704700F00040704743024FF00B0C18BF89
:102740004CF0806C7FF45AAE70471CF4801F11D09F
:102750001CF4E02F03D06FEACC31490070474FF0F2
:102760004050EFF3008222F0704242EA000282F30E
:10277000008870474FF00000704700000000000024
:1027800000000000000000000000000000F8000051
:102790000000000000333000000000100C06100C98
:1027A0000600000000000000000040C07840C07833
:1027B0004000043F04043F040400007088FC08301B
:1027C0000000001820FF211E0000F008F000E018B3
:1027D000000000211C031E211E0000F0088870006C
:1027E00000001E2123241927211010160E000000BE
:1027F00000000000000000000000000000E01804DD
:102800000200000000071820400000020418E00049
:1028100000000040201807000000404080F0804089
:1028200040000202010F01020200000000F000005F
:1028300000000101011F0101010000000000000073
:10284000000080B0700000000000000000000000E8
:102850000000000101010101010100000000000071
:102860000000003030000000000000000000806028
:102870001804006018060100000000E010080810AD
:10288000E000000F102020100F00001010F80000D2
:1028900000000020203F2020000000700808088869
:1028A0007000003028242221300000300888884839
:1028B00030000018202020110E000000C02010F869
:1028C000000000070424243F240000F8088888083A
:1028D00008000019212020110E0000E0108888183F
:1028E0000000000F112020110E0000380808C83821
:1028F00008000000003F0000000000708808088801
:102900007000001C222121221C0000E01008081089
:10291000E0000000312222110F00000000C0C000C2
:1029200000000000003030000000000000800000C7
:1029300000000000806000000000000080402010C7
:1029400008000001020408102000404040404040C0
:102950004000040404040404040000081020408023
:102960000000002010080402010000704808080858
:10297000F0000000003036010000C030C828E81028
:10298000E0000718272423140B000000C038E000E3
:102990000000203C23020227382008F8888888702D
:1029A0000000203F202020110E00C0300808080839
:1029B0003800071820202010080008F80808081020
:1029C000E000203F202020100F0008F88888E80849
:1029D0001000203F20202320180008F88888E808ED
:1029E0001000203F200003000000C0300808083815
:1029F000000007182020221E020008F80800000826
:102A0000F808203F210101213F20000808F80808AC
:102A100000000020203F2020000000000808F808E7
:102A20000800C08080807F00000008F888C0281857
:102A30000800203F20012638200008F80800000088
:102A40000000203F20202020300008F8F800F8F88F
:102A50000800203F003F003F200008F830C0000879
:102A6000F808203F200007183F00E0100808081071
:102A7000E0000F10202020100F0008F808080808B8
:102A8000F000203F210101010000E01008080810BB
:102A9000E0000F18242438504F0008F888888888F0
:102AA0007000203F2000030C3020007088080808C8
:102AB00038000038202121221C00180808F80808D6
:102AC00018000000203F2000000008F8080000085F
:102AD000F808001F202020201F000878880000C868
:102AE0003808000007380E010000F80800F8000858
:102AF000F800033C0700073C030008186880806862
:102B0000180820302C03032C30200838C800C8389F
:102B100008000000203F2000000010080808C83806
:102B200008002038262120201800000000FE0202A4
:102B300002000000007F40404000000C30C0000058
:102B40000000000000010638C00000020202FE0082
:102B50000000004040407F0000000000040202022C
:102B60000400000000000000000000000000000061
:102B7000000080808080808080800002020400004D
:102B80000000000000000000000000008080808045
:102B900000000019242222223F2008F80080800033
:102BA0000000003F112020110E00000000808080F6
:102BB0000000000E112020201100000000808088FD
:102BC000F800000E112020103F200000808080803F
:102BD0000000001F222222221300008080F088883B
:102BE00088180020203F2020000000008080808086
:102BF0008000006B94949493600008F800808080BB
:102C00000000203F210000203F2000809898000015
:102C100000000020203F2020000000000080989845
:102C2000000000C08080807F000008F800008080E5
:102C30008000203F24022D302000000808F800000A
:102C400000000020203F20200000808080808080C5
:102C50008000203F20003F20003F80800080808057
:102C60000000203F210000203F2000008080808065
:102C70000000001F202020201F0080800080800096
:102C8000000080FFA12020110E0000000080808045
:102C90008000000E112020A0FF80808080008080B6
:102CA000800020203F2120000100000080808080E3
:102CB00080000033242424241900008080E08080D8
:102CC00000000000001F2020000080800000008025
:102CD0008000001F202020103F2080808000008086
:102CE000808000010E300806010080800080008096
:102CF00080800F300C030C300F000080800080803B
:102D000080000020312E0E31200080808000008065
:102D1000808080818E701806010000808080808015
:102D200080000021302C2221300000000000807C37
:102D3000020200000000003F404000000000FF00D1
:102D4000000000000000FF0000000002027C800084
:102D500000000040403F00000000000601010202A8
:102D6000040400000000000000001F1D1F1E1F1EA5
:102D70001F1F1E1F1E1F0000982D000800000020AE
:102D80002800000028010008C02D000828000020AD
:102D9000980600004401000800630000E9070200F3
:102DA0000400100027000D000100000001000000D9
:102DB0000000000000000000000000000000000013
:04000005080000ED02
:00000001FF
