:020000040800F2
:1000000070060020890100081F040008550300083D
:100010001D04000843020008D50700080000000086
:1000200000000000000000000000000001050008C2
:100030004502000800000000C5040008B9050008DA
:10004000A3010008A3010008A3010008A301000800
:10005000A3010008A3010008A3010008A3010008F0
:10006000A3010008A3010008A3010008A3010008E0
:10007000A3010008A3010008A3010008A3010008D0
:10008000A3010008A3010008A3010008A3010008C0
:10009000A3010008A3010008A3010008A3010008B0
:1000A000A3010008A3010008A3010008A3010008A0
:1000B000A3010008A3010008A3010008A301000890
:1000C000A3010008A3010008A3010008A301000880
:1000D000A3010008A3010008A3010008A301000870
:1000E000A3010008A3010008A301000800F002F822
:1000F00000F03AF80AA090E8000C82448344AAF188
:100100000107DA4501D100F02FF8AFF2090EBAE885
:100110000F0013F0010F18BFFB1A43F0010318473B
:100120003009000050090000103A24BF78C878C197
:10013000FAD8520724BF30C830C144BF04680C60ED
:10014000704700000023002400250026103A28BF35
:1001500078C1FBD8520728BF30C148BF0B60704739
:100160001FB51FBD10B510BD00F031F81146FFF7E7
:10017000F7FF00F031FB00F04FF803B4FFF7F2FF98
:1001800003BC00F057F800000948804709480047C1
:10019000FEE7FEE7FEE7FEE7FEE7FEE7FEE7FEE737
:1001A000FEE7FEE704480549054A064B7047000094
:1001B000BD050008ED00000870000020700600205A
:1001C000700200207002002070477047704775462B
:1001D00000F02CF8AE4605006946534620F00700B3
:1001E000854618B020B5FFF7DDFFBDE820404FF091
:1001F00000064FF000074FF000084FF0000B21F011
:100200000701AC46ACE8C009ACE8C009ACE8C009DD
:10021000ACE8C0098D46704710B50446AFF30080C6
:100220002046BDE81040FFF7A8BF00000048704717
:100230001000002001491820ABBEFEE72600020096
:100240007047FEE7704700B502464FF47A7302E04C
:10025000184600F004F8521E501CF9D100BD00EB06
:10026000C000C1004FF0E020416100218161052103
:1002700001610169C903FCD50421016170472DE9C1
:10028000F0410022CC7804F00F03E40601D58C780D
:1002900023430C784FF00F0714F0FF0F4FF0010CC1
:1002A0001CD005680CFA02F40E882640A64211D133
:1002B000960007FA06F825EA080503FA06F848EA60
:1002C0000505CE78282E02D0482E02D002E04461E7
:1002D00000E00461521C082AE4D305600A88FF2A62
:1002E0001ED94568002202F108060CFA06F40E88B1
:1002F0002640A64210D1960007FA06F825EA08051E
:1003000003FA06F848EA0505CE78282E00D14461A4
:10031000CE78482E00D10461521C082AE3D34560F0
:10032000BDE8F0810246002092680A4200D0012018
:10033000704702460020D2680A4200D00120704770
:1003400001617047C1607047002A01D001617047A8
:1003500041617047FEE7000070B50024074D102191
:100360002846FFF7DFFF00B9012420212846FFF7C8
:10037000D9FF00B90224204670BD0000000C0140E6
:1003800070B50024074D40212846FFF7CBFF00B988
:10039000012480212846FFF7C5FF00B9022420462A
:1003A00070BD0000000C014038B50121042000F0B0
:1003B00099F810258DF80350FF20ADF800000324B4
:1003C0008DF8024069461048FFF759FF01210820C7
:1003D00000F088F88DF803500F20ADF800008DF87C
:1003E00002400A4D69462846FFF749FFF021ADF863
:1003F000001048218DF803108DF802406946284608
:10040000FFF73DFF38BD000000080140000C01402F
:1004100000210148FFF794BF00080140FEE7704744
:1004200030B589B00121042000F04EF801210820E8
:1004300000F058F818208DF823004001ADF8200096
:1004400003208DF8220008A91948FFF718FF194D5D
:10045000284600F0E7F80024ADF81A40ADF8164041
:100460006321ADF8181040F2CF20ADF814008DF8DC
:100470001C4005A9284600F05FF901A800F04EF9DC
:100480006020ADF80400ADF80C400120ADF8060086
:10049000ADF80A4001A9284600F0CAF801A928468B
:1004A00000F008F90121284600F0B0F809B030BD8D
:1004B000000C0140000800400146014800F038B936
:1004C0000008004070470000054A002903D0D169A8
:1004D0000143D1617047D1698143D1617047000008
:1004E00000100240054A002903D09169014391613F
:1004F000704791698143916170470000001002408C
:10050000704700F001B800000CB500220192009283
:100510002748016841F4803101604FF4A06301680D
:1005200001F4003100910199491C0191009911B920
:1005300001999942F3D10168890302D50121009103
:1005400000E000920099012930D11A490A6842F06E
:1005500010020A600A6822F003020A600A6842F088
:1005600002020A604168416041684160416841F4AB
:1005700080614160416821F47C114160416841F42F
:10058000E8114160016841F08071016001688901F2
:10059000FCD5416821F003014160416841F002014E
:1005A00041604168C1F381010229FAD10CBD00000C
:1005B00000100240002002407047000010B50F48B4
:1005C000016841F00101016041680D4A114041603C
:1005D00001680C4A11400160016821F4802101602A
:1005E000416821F4FE0141604FF41F018160FFF773
:1005F00088FF05494FF00060086010BD0010024000
:100600000000FFF8FFFFF6FE08ED00E0002904D02F
:10061000018841F0010101807047018821F001014A
:1006200001807047018921F00701018170470000B6
:1006300070B5028C22F480720284028C8388848BD1
:1006400024F0700424F003040D88254322F4007282
:100650000E894FF6FF7404EA062616434A8804EA18
:1006600002223243114EB04202D0114EB04217D195
:1006700022F400664A8904EA0222324322F48066A8
:100680008A8804EA0222324323F4805323F400537D
:100690008E8904EA06161E43CB8904EA031333430A
:1006A00083808583C9888187028470BD002C0140C6
:1006B0000034014070B5028C22F480520284058C13
:1006C0008288838B23F4E04323F440760C884FF632
:1006D000FF7303EA0424344325F400550E8903EA2A
:1006E00006362E434D8803EA05353543094EB042A0
:1006F00002D0094EB04205D122F480468A8903EA2D
:100700008212324382808483C988A0F84010058415
:1007100070BD0000002C0140003401400021018028
:1007200041808180C180018141818181C181704787
:10073000A0F840107047000030B502881B4C1C4DDB
:10074000A0420DD0A8420BD0B0F1804F08D0194B79
:10075000984205D0184B984202D0184B984203D1CA
:1007600022F070034A881A43154B984206D0154B65
:10077000984203D022F44073CA881A4302808A88C0
:1007800082850A880285A0420AD0A84208D00E4A73
:10079000904205D00D4A904202D00D4A904201D1BC
:1007A000097A01860121818230BD0000002C0140C0
:1007B000003401400004004000080040000C0040EC
:1007C000001000400014004000400140004401407F
:1007D00000480140FEE70000FFF7E6FDFFF720FEBE
:1007E0000124DFF864A201274FF00208954EDFF8DC
:1007F0005CB24FF00009AAF10505FFF7C1FD2870B2
:10080000012800D1AF70022801D185F80280FFF7DE
:10081000A3FD6870012800D1EF70022801D185F88E
:100820000380A878012802D0022853D129E0E87873
:1008300001284FD185F802902F710EE0002204218B
:100840003046FFF781FD002208213046FFF77CFD8E
:1008500020213046FFF766FD28B120213046FFF702
:1008600061FD0128EAD0012204213046FFF76CFD2A
:10087000002208213046FFF767FD022485F8038037
:1008800028E0E878012825D185F802902F710EE044
:10089000002204213046FFF757FD00220821304690
:1008A000FFF752FD20213046FFF73CFD28B1202103
:1008B0003046FFF737FD0128EAD0012208213046F3
:1008C000FFF742FD002204213046FFF73DFD0124E1
:1008D00085F80380022C58D104213046FFF729FD0A
:1008E000012807D1C820FFF7AEFC002204213046C2
:1008F000FFF72AFDFFF78CFD0120FFF7A4FC002283
:1009000001213046FFF720FD9AF800105846FFF706
:1009100019FD0120FFF797FC012211463046FFF731
:1009200013FD002202213046FFF70EFD9AF8021057
:100930005846FFF707FD0120FFF785FC0122022141
:100940003046FFF701FDE878022816D12879012802
:1009500013D11E20FFF7B0FD3220FFF774FC3220C8
:10096000FFF7AAFD3220FFF76EFC6420FFF7A4FD1D
:100970003220FFF768FC85F80490E878012804D15C
:10098000287910B90020FFF797FD012C7FF435AFCF
:1009900008213046FFF7CDFC012807D1C820FFF71A
:1009A00052FC002208213046FFF7CEFCFFF730FD55
:1009B0000120FFF748FC002201213046FFF7C4FC6C
:1009C0009AF800105846FFF7BDFC0120FFF73BFCEA
:1009D000012211463046FFF7B7FC002202213046C3
:1009E000FFF7B2FC9AF801105846FFF7ABFC012064
:1009F000FFF729FC012202213046FFF7A5FCE87829
:100A0000022816D12879012813D11E20FFF754FDA2
:100A10003220FFF718FC3220FFF74EFD3220FFF79F
:100A200012FC6420FFF748FD3220FFF70CFC85F82C
:100A30000490E8780128A9D128790028A6D1FFF7E9
:100A40003BFDDAE6000C01400500002000080140F3
:100A5000700A0008000000201000000028010008B3
:100A6000800A000810000020600600004401000811
:100A700000000000013F065B4F666D7D077F6F0041
:04000005080000ED02
:00000001FF
