:020000040800F2
:10000000C8060020890100089D0B00083F08000871
:100010006D0A0008190700084916000800000000D2
:10002000000000000000000000000000C9110008EE
:100030003D07000800000000310F000869140008A7
:10004000A3010008A3010008A3010008A301000800
:10005000A3010008A3010008A3010008A3010008F0
:10006000A3010008A3010008A3010008A3010008E0
:10007000A3010008A3010008A3010008A3010008D0
:10008000A3010008A3010008A3010008A3010008C0
:10009000A3010008A3010008A3010008A3010008B0
:1000A000A3010008A3010008A3010008A3010008A0
:1000B000BD140008A3010008A3010008A301000863
:1000C000A3010008A3010008A3010008A301000880
:1000D000A3010008A3010008A3010008A301000870
:1000E000A3010008A3010008A301000800F002F822
:1000F00000F03AF80AA090E8000C82448344AAF188
:100100000107DA4501D100F02FF8AFF2090EBAE885
:100110000F0013F0010F18BFFB1A43F0010318473B
:1001200088250000A8250000103A24BF78C878C1AF
:10013000FAD8520724BF30C830C144BF04680C60ED
:10014000704700000023002400250026103A28BF35
:1001500078C1FBD8520728BF30C148BF0B60704739
:100160001FB51FBD10B510BD00F0C3F91146FFF754
:10017000F7FF01F06BFA00F0E1F903B4FFF7F2FFCB
:1001800003BC00F0E9F9000009488047094800472E
:10019000FEE7FEE7FEE7FEE7FEE7FEE7FEE7FEE737
:1001A000FEE7FEE704480549054A064B7047000094
:1001B0006D140008ED000008C8000020C8060020EB
:1001C000C8020020C802002010B5203AC0F00B8001
:1001D000B1E81850203AA0E81850B1E81850A0E84B
:1001E0001850BFF4F5AF5FEA027C24BFB1E81850A5
:1001F000A0E8185044BF18C918C0BDE810405FEA15
:10020000827C24BF51F8043B40F8043B08BF704790
:10021000D20728BF31F8023B48BF11F8012B28BF95
:1002200020F8023B48BF00F8012B7047014900F05D
:10023000DDB800003800002010B503681C1404EB82
:1002400021449BB289B2194494FBF2F302FB13439D
:1002500094FBF2F401EB034393FBF2F102FB113147
:1002600093FBF2F301E05B1E11440029FBDB01600C
:1002700003EB044010BDF0B504464FF0FF3585B0E8
:100280000068049060680290A0680390E0680190A4
:1002900020690090666906F18040B0F1004F7CD87B
:1002A0003C22002104A8FFF7C7FF3C22014602A818
:1002B000FFF7C2FF1822014603A8FFF7BDFF411E4A
:1002C00040F2B55201A8FFF7B7FF0C220746684677
:1002D0000021FFF7B1FF414B00EB870030440026BF
:1002E0007B4411E0511A01910099491C02290091A7
:1002F00002D00C2908D105E0810705D00199491CDD
:10030000019101E0401C00960099019A595C9142CC
:10031000E8DD0099012906D11C2A04D1810702D009
:100320000221CDE90016A0F146018B293CD2DDE97E
:100330000061002202E09F5C521C3944B242FADBA9
:10034000012E02DD820700D0491E40F2B55340F273
:100350006D16C21700EB927292105A4300F003031D
:1003600003FB062283070A4400D1521E039E02EBC0
:100370004203049F06EBC303029EC3EB031306EB89
:100380008303174E33441E149BB2C6EB0616C3EB11
:100390000313B60007EB830300E005E006EB13460A
:1003A00066F31F43360C02D0284605B0F0BD80C46A
:1003B000029E40C4039E40C4019E761C44F80C6B10
:1003C000009E44E902600720521C92FBF0F600FBFD
:1003D000162084E823001846E7E70000B823000051
:1003E000A039CEFD704770477047000070B50C46CD
:1003F000016800204A1C3ED03C22B1FBF2F302FB14
:100400001313B1FBF2F12360B1FBF2F302FB131300
:10041000B1FBF2F118226360B1FBF2F302FB13139C
:10042000B1FBF2F146F2E0320A440721A360B2FBCD
:10043000F1F301FB132140F2B553B2FBF3F5A161D7
:10044000B2FBF3F103FB15228900B2F5B77F08D3A5
:100450009B10521EB2FBF3F52944B2FBF3F503FBEC
:1004600015220F4BE261616189077B440CD03B2A66
:100470000AD3521C08E02C21204600F013F801207A
:10048000E0600AE0521A401C195C9142FAD9521CF1
:10049000C4E903204FF0FF302062204670BD000009
:1004A0002E2200004FF0000200B5134694469646F7
:1004B000203922BFA0E80C50A0E80C50B1F1200177
:1004C000BFF4F7AF090728BFA0E80C5048BF0CC025
:1004D0005DF804EB890028BF40F8042B08BF704783
:1004E00048BF20F8022B11F0804F18BF00F8012BF5
:1004F0007047754600F02CF8AE4605006946534635
:1005000020F00700854618B020B5FFF74BFEBDE888
:1005100020404FF000064FF000074FF000084FF06A
:10052000000B21F00701AC46ACE8C009ACE8C009FB
:10053000ACE8C009ACE8C0098D46704710B5044668
:10054000AFF300802046BDE81040FFF716BE000064
:10055000004870476400002001491820ABBEFEE748
:1005600026000200704700002DE9F041414D0026B1
:10057000414F28782C1D092832D10821384600F037
:100580004DF958B904206870C82000F0D8F82089C7
:10059000401C01B221813C2900D12681102138461E
:1005A00000F03CF958B903206870C82000F0C7F883
:1005B000E088401C01B2E180182900D1E6800421C6
:1005C000384600F02BF958B905206870C82000F0B3
:1005D000B6F86089401C00B260813C2800D1668179
:1005E0002878082844D1A8784FF0010878B900F09D
:1005F00089FA224908882080488860808888A080FD
:10060000C888E08008892081668185F802800821F9
:10061000384600F003F960B985F80180C82000F081
:100620008EF86088401C01B261800D2901D1A4F8C8
:1006300002801021384600F0F1F830B96E70C82001
:1006400000F07DF82188491C21800421384600F003
:10065000E5F800280CD102206870C82000F06FF87F
:10066000A088401C00B2A080202801D1A4F80480FA
:10067000BDE8F081000000200008014010000020CB
:1006800010B58CB01848B0F90010A1F26C71069149
:10069000B0F90210491E0591B0F904100491B0F9A7
:1006A00006100391B0F908100291B0F90A00019008
:1006B00001A8FFF7E0FD044600F0A2FC00F5E140D0
:1006C000A04201D100F032F84021084800F0A6F81D
:1006D000002807D100F022F80348001F00214160E4
:1006E0008160C1600CB010BD040000200008014012
:1006F00008B50349084400900098008808BD000030
:10070000006C004008B5034A104400900098016056
:1007100008BD0000006C0040FEE700004FF40041FF
:10072000014800F084B80000000C01404FF4004183
:10073000014800F07AB80000000C0140704700B595
:1007400002464FF47A7302E0184600F004F8521E95
:10075000501CF9D100BD00EBC000C1004FF0E020FB
:10076000416100218161052101610169C903FCD555
:100770000421016170472DE9F0410022CC7804F09A
:100780000F03E40601D58C7823430C784FF00F0754
:1007900014F0FF0F4FF0010C1CD005680CFA02F4A6
:1007A0000E882640A64211D1960007FA06F825EADF
:1007B000080503FA06F848EA0505CE78282E02D087
:1007C000482E02D002E0446100E00461521C082A75
:1007D000E4D305600A88FF2A1ED94568002202F189
:1007E00008060CFA06F40E882640A64210D19600A0
:1007F00007FA06F825EA080503FA06F848EA0505A7
:10080000CE78282E00D14461CE78482E00D10461E4
:10081000521C082AE3D34560BDE8F081024600205F
:1008200092680A4200D0012070474161704701611F
:100830007047002A01D00161704741617047FEE7AF
:100840002DE9F041484D494F00262878484C0628AC
:100850003DD108213846FFF7E1FF4FF0010880B98C
:1008600085F80180C820FFF76AFF00F04BF9608827
:10087000401C01B261800D2901D1A4F8028000F072
:1008800067F910213846FFF7C9FF50B96E70C820CC
:10089000FFF755FF00F036F92188491C218000F050
:1008A00057F904213846FFF7B9FF80B90220687074
:1008B000C820FFF744FF00F025F9A088401C01B2D2
:1008C000A180202901D1A4F8048000F041F9287802
:1008D000072847D108213846FFF7A0FF90B9042028
:1008E0006870C820FFF72BFF00F00CF92089401C2E
:1008F00001B221813C2900D1268100F029F91D484F
:1009000000F094F810213846FFF788FF90B90320D3
:100910006870C820FFF713FF00F0F4F8E088401C6F
:1009200001B2E180182900D1E68000F011F91248E7
:1009300000F05CF804213846FFF770FF002811D161
:1009400005206870C820FFF7FAFE00F0DBF8608928
:10095000401C00B260813C2800D16681BDE8F041B6
:1009600000F0F6B8BDE8F08100000020000801406A
:1009700010000020CDCC0C3F9A9929407CB5012174
:10098000042000F0E5FA48208DF807007E20ADF83D
:100990000400144E01A93046FFF7EDFE10258DF836
:1009A00007508021ADF8041003248DF8064001A9FA
:1009B0003046FFF7E0FE0121082000F0C9FA8DF86B
:1009C00003504FF60340ADF800008DF80240064C8E
:1009D00069462046FFF7CFFEE9022046FFF727FFD2
:1009E0007CBD000000080140000C014070B50024EF
:1009F0000D4D062101F01CFB06460DE0287C00F0A1
:100A00003FFC2869401CC11700EB917121F00301E4
:100A1000401A2861641CA4B2204601F049FA31460C
:100A200001F05AFAEAD370BD1C00002070B5002412
:100A30000D4D062101F0FCFA06460DE0287B00F082
:100A40007FFCE868401CC11700EB917121F00301A5
:100A5000401AE860641CA4B2204601F029FA31462D
:100A600001F03AFAEAD370BD1C000020FEE7000056
:100A700010B547F603410448FFF7D7FEBDE8104024
:100A800080210248FFF7D1BE000C01400008014060
:100A900010B50121080700F04DFA0121C80600F049
:100AA00049FA012000F03EFA0420FFF721FE4AF245
:100AB000A554A0421FD0012000F070FA412000F0A0
:100AC00055FA0128FAD1000200F082FA012000F064
:100AD00079FA00F0D3FA00F0C9FA47F6FF7000F097
:100AE000B5FA00F0C3FA00F033F82146BDE8104033
:100AF0000420FFF707BE00F0C1FABDE8104000F087
:100B0000B5BA000000B58DB000F07AFA00F5E1400A
:100B10000C900CA8FFF78AFB01462C2201A8FFF7D6
:100B200053FB0699094801F26C7101800599491C33
:100B30004180049981800399C180029901810199C2
:100B4000418100F093FA0DB000BD000010000020BC
:100B500000B58BB01048B0F90010A1F26C7105918E
:100B6000B0F90210491E0491B0F904100391B0F9D4
:100B700006100291B0F908100191B0F90A00009036
:100B80006846FFF778FBA0F5E14000F04FFA00F06F
:100B90006DFA0BB000BD000010000020704700008F
:100BA00070B50F23C27801260178002A1ED0144A9E
:100BB000126802F4E062C2F5E062120AC2F10404B3
:100BC000D3404578A54082781A402A43120101F1AA
:100BD000E02181F80024007800F01F018E404009D8
:100BE000800000F1E020C0F8006170BD01F01F003E
:100BF00086404809800000F1E020C0F8806170BDA7
:100C00000CED00E070B500250021284600F0F6F854
:100C10000024002000F074F9641CE4B2802CF8D3A6
:100C20006D1CEDB2082DEFD370BD0000F8B50121A9
:100C3000082000F08DF914208DF8030003208DF8B2
:100C400002004FF48074ADF800400B4E6946304608
:100C5000FFF791FD6500ADF8005069463046FFF79B
:100C60008AFD012221463046FFF7E3FD0122294695
:100C70003046FFF7DEFDF8BD000C01402DE9F047DE
:100C800007460024134D4FF080094FF40078AE154D
:100C900029FA04F23A4041462846FFF7CAFD0122EC
:100CA00031462846FFF7C5FD002231462846FFF7AA
:100CB000C0FD641CE4B2082CEAD301223146284668
:100CC000FFF7B7FD31462846BDE8F0470022FFF7A1
:100CD000B0BD0000000C014070B501220B4D540264
:100CE00021462846FFF7A5FD012216023146284677
:100CF000FFF79FFD002221462846FFF79AFD314667
:100D00002846BDE870400022FFF793BD000C01406B
:100D100070B50A4D4FF40074002221462846FFF7B3
:100D200088FD012211022846FFF783FD214628464F
:100D3000BDE870400122FFF77CBD0000000C0140BF
:100D400010B500214FF47A720020401C9042FCD371
:100D5000491C9142F8D3FFF769FFAE2000F0BFF8BD
:100D6000D52000F0BCF8802000F0B9F8A82000F0F1
:100D7000B6F83F2000F0B3F8D32000F0B0F8002020
:100D800000F0ADF8402000F0AAF8A12000F0A7F88C
:100D9000C82000F0A4F8DA2000F0A1F8122000F03A
:100DA0009EF8812000F09BF8CF2000F098F8D92021
:100DB00000F095F8F12000F092F8DB2000F08FF8B9
:100DC000302000F08CF8A42000F089F8A62000F074
:100DD00086F88D2000F083F8142000F080F8AF2012
:100DE00000F07DF8BDE81040FFF70CBF034601207E
:100DF00000E05843491E4A1CFBD1704710B50C4611
:100E000040F0B00000F06BF8102040EA141000F041
:100E100066F804F00F00BDE8104000F060B8000074
:100E20002DE9F0411546491E461ECF007006F9B265
:100E3000000EFFF7E3FF00240E48203D00EB0515F0
:100E4000285D00F05DF8641CE4B2082CF8D30120A2
:100E500000EB4600F9B2C0B2FFF7D0FF002428191A
:100E6000007A00F04DF8641CE4B2082CF7D3BDE81A
:100E7000F0810000AC2000082DE9F04781460F46C4
:100E800090461E4600240A2512E0311B491E0A2006
:100E9000FFF7ACFFB8FBF0F2B2FBF5F005FB102258
:100EA0003819C1B230324846FFF7BAFF641CE4B2C9
:100EB000B442EAD3BDE8F0872DE9F04107460D467C
:100EC0001646002406E02819C1B23846FFF7A8FFED
:100ED000641CE4B2325D002AF5D1BDE8F08110B5A2
:100EE0000446FFF7F9FE7820FFF7C8FE0020FFF761
:100EF000C5FE2046FFF7C2FEBDE81040FFF708BF61
:100F000010B50446FFF7E8FE7820FFF7B7FE402053
:100F1000FFF7B4FE2046FFF7B1FEBDE81040FFF733
:100F2000F7BE0000014908627047000000000E4251
:100F300070470000054A002903D0D1690143D161FF
:100F40007047D1698143D1617047000000100240B1
:100F5000054A002903D09169014391617047916965
:100F60008143916170470000001002400346002059
:100F70005909094A01290AD002290AD0516A03F005
:100F80001F02012393400B4200D0012070471168DB
:100F9000F5E7116AF3E7000000100240084900225B
:100FA0000A7001F82029012805D0042802D1052063
:100FB00081F820007047012081F820007047000070
:100FC0002010024001490860704700003C04424282
:100FD00002490A6A02430A62704700000010024098
:100FE0000248018841F01001018070470428004048
:100FF0000248018821F01001018070470428004058
:10100000034800880249091F098840EA01407047E7
:101010001C280040044800880007010B0248001DFE
:1010200000880843704700001028004000B50246C1
:10103000FFF7D6FF0449100C0880081D02805DF8F8
:1010400004EBFFF7D5BF00001828004000B50246AA
:10105000FFF7C6FF0449C2F303400880081D028061
:101060005DF804EBFFF7C4BF082800400248018880
:101070008906FCD570470000042800400448018818
:1010800021F00801018001880907FCD570470000A4
:10109000042800402DE9F0470D4620214748FFF77E
:1010A000BDFB002863D1C820FFF749FBDFF8109192
:1010B0000C261F2799F800003B244FF0170808283A
:1010C0003FD009283DD03F48062D3AD2DFE805F051
:1010D0000C0312251B304188491E09B2418001B919
:1010E0004680FFF735FD2CE00188491E0180FFF79F
:1010F0002FFD26E08188491E09B2818001B98780D1
:10110000FFF726FD1DE00189491E0AB20281521C2B
:1011100000D10481FFF71CFD13E0C188491E09B20C
:10112000C180491C01D1A0F80680FFF711FD08E03D
:101130004189491E09B24181491C00D14481FFF710
:1011400007FD99F80000082801D009280FD11C4894
:10115000001D062D0BD2DFE805F00C031020182926
:101160004188491E09B24180002900D14680BDE86E
:10117000F0870188491E0180F9E78188491E09B27C
:1011800081800029F3D18780F1E70189491E09B2E6
:101190000181491CEBD10481E9E7C188491E09B2EC
:1011A000C180491CE3D1A0F80680E0E74189491ECF
:1011B00009B24181491CDAD14481D8E700080140D5
:1011C0000000002010000020704700F001B800006F
:1011D0000CB50022019200922748016841F4803149
:1011E00001604FF4A063016801F40031009101999E
:1011F000491C0191009911B901999942F3D10168F3
:10120000890302D50121009100E000920099012993
:1012100030D11A490A6842F010020A600A6822F0C6
:1012200003020A600A6842F002020A6041684160F3
:1012300041684160416841F480614160416821F446
:101240007C114160416841F4E8114160016841F05E
:101250008071016001688901FCD5416821F00301BA
:101260004160416841F0020141604168C1F3810180
:101270000229FAD10CBD00000010024000200240FB
:1012800070B52C4D6968491C69602B4A2B4C1615AA
:10129000002806D0012815D0022824D0032843D1E5
:1012A00032E080211046FFF7C0FA01212046FFF707
:1012B000BEFA02212046FFF7BAFA31462046FFF770
:1012C000B6FA31E080211046FFF7B1FA012120463D
:1012D000FFF7ABFA02212046FFF7A9FA3146204674
:1012E000FFF7A5FA20E080211046FFF7A0FA0121C0
:1012F0002046FFF79CFA02212046FFF796FA314676
:101300002046FFF794FA0FE080211046FFF78FFA8E
:1013100001212046FFF78BFA02212046FFF787FACA
:1013200031462046FFF781FA68683C2801D1012048
:10133000686070BD1C00002000080140000C0140E6
:101340002DE9F041324C2168491C21604FF40061C5
:10135000304D4E008F004FF48048002806D0012801
:1013600014D0022822D003283FD12FE02846FFF7CF
:101370005CFA31462846FFF75AFA39462846FFF705
:1013800056FA41462846FFF752FA2EE02846FFF764
:101390004EFA31462846FFF748FA39462846FFF705
:1013A00046FA41462846FFF742FA1EE02846FFF774
:1013B0003EFA31462846FFF73AFA39462846FFF703
:1013C00034FA41462846FFF732FA0EE02846FFF786
:1013D0002EFA31462846FFF72AFA39462846FFF703
:1013E00026FA41462846FFF720FA20683C280DD10E
:1013F000207AFFF745FFA068401CC11700EB9171F0
:1014000021F00301401AA06001202060BDE8F081B6
:101410001C000020000C014010B502211048FFF70D
:10142000FDF900280FD1C820FFF789F90D48017890
:101430000A2908D2DFE801F0050707070707080BAC
:101440000E110621017010BD0721017010BD082189
:10145000017010BD0921017010BD0021017010BD87
:1014600000080140000000207047000010B50F4840
:10147000016841F00101016041680D4A114041607D
:1014800001680C4A11400160016821F4802101606B
:10149000416821F4FE0141604FF41F018160FFF7B4
:1014A00094FE05494FF00060086010BD0010024036
:1014B0000000FFF8FFFFF6FE08ED00E010B5012187
:1014C0008C07204600F05BF8002817D00121204649
:1014D00000F046F80A4C2068401C20603C280DD1E2
:1014E0002079FFF72DFF6068401CC11700EB917158
:1014F00021F00301401A60600020206010BD000050
:10150000300000207FB501210846FFF713FD41F6AA
:101510001F40ADF804000024ADF806404FF4917070
:10152000ADF80800ADF80A40450701A9284600F0CB
:101530003DF801221146284600F02DF801212846E9
:1015400000F011F81C208DF8000001208DF801003A
:101550008DF802408DF803006846FFF721FB7FBD40
:10156000C94301827047002904D0018841F001017C
:1015700001807047018821F0010101807047024617
:101580000020138A0B4092890A40002B02D0002AC7
:1015900000D001207047002A03D082890A4382814B
:1015A000704782898A4382817047000030B5028883
:1015B0001B4C1C4DA0420DD0A8420BD0B0F1804F67
:1015C00008D0194B984205D0184B984202D0184BBE
:1015D000984203D122F070034A881A43154B98426F
:1015E00006D0154B984203D022F44073CA881A43A0
:1015F00002808A8882850A880285A0420AD0A84291
:1016000008D00E4A904205D00D4A904202D00D4AB1
:10161000904201D1097A01860121818230BD00000A
:10162000002C01400034014000040040000800404C
:10163000000C004000100040001400400040014039
:101640000044014000480140FEE70000FFF778FB3E
:10165000012196A20846FFF72FFC98A20121022043
:10166000FFF72AFC99A201210320FFF725FC99A28C
:1016700001210420FFF720FCFFF70AFAFFF77EF9AB
:10168000FFF7F6F9FFF73EFA944D04230621B5F96A
:1016900000200120FFF7F0FBB5F9022002230B2107
:1016A0000120FFF7E9FBB5F9042002230E210120F8
:1016B000FFF7E2FB0223B5F9062006211846FFF7E3
:1016C000DBFB0223B5F9082009211846FFF7D4FBFC
:1016D0000223B5F90A200C211846FFF7CDFBB5F916
:1016E000080000F0CDFBFFF7A1F9B5F90A0000F002
:1016F000C7FBFFF77BF9FFF705FF794F794E7A4C6F
:1017000047F6FF78DFF8E491DFF8E4A1FFF7FAF994
:10171000FFF782FEFFF794F839783078FFF7BAFCCC
:10172000FEF722FFFEF7ACFF307808282BD00928FF
:1017300029D0B5F90020042306210120FFF79CFBE6
:10174000B5F9022002230B210120FFF795FBB5F923
:10175000042002230E210120FFF78EFB0223B5F99E
:10176000062006211846FFF787FB0223B5F908205B
:1017700009211846FFF780FB0223B5F90A200C2146
:101780001846FFF779FB307820B95AA206210320CA
:10179000FFF792FB3078062804D159A206210320D6
:1017A000FFF78AFB3078072804D158A206210320CE
:1017B000FFF782FB307808282ED157A2062103209C
:1017C000FFF77AFBB4F90020042306210120FFF77C
:1017D00053FBB4F9022002230B210120FFF74CFB3D
:1017E000B4F9042002230E210120FFF745FB022358
:1017F000B4F9062006211846FFF73EFB0223B4F990
:10180000082009211846FFF737FB0223B4F90A2004
:101810000C211846FFF730FB307809282ED141A261
:1018200006210320FFF748FBB4F90020042306211A
:101830000120FFF721FBB4F9022002230B21012034
:10184000FFF71AFBB4F9042002230E210120FFF751
:1018500013FB0223B4F9062006211846FFF70CFB00
:101860000223B4F9082009211846FFF705FB0223DB
:10187000B4F90A200C211846FFF7FEFAFFF7CAFB5D
:10188000A8EB000000F0D9F900224B4600F050F818
:101890000022534600F0E4F900F0A2F902460A23C0
:1018A00006210420FFF7E8FA30E700004461746580
:1018B0003A585858582D58582D58580054696D6545
:1018C0003A58583A58583A58580000004D6F6465D5
:1018D0003A000000446976203A0000001000002021
:1018E000010000200000002004000020C0FFDF40B5
:1018F00000388F404E4F4E452020202020200000F1
:1019000044415445202020202020200054494D45AA
:101910002020202020202000414C41524D5F444196
:1019200054452000414C41524D5F54494D452000E3
:101930002DE9C04130B4DFF8A0C23CEA111418BF51
:101940003CEA131400F0EC8081EA03051CEA111450
:1019500044EAD57418BF1CEA131500F0C780A4EB45
:1019600005044FF0004545EAC12145EAC32341EA99
:10197000505143EA525304F17F74994204F5003404
:101980004FEAC0204FEAC22208BF904200F09C807C
:101990004FEA13650FF24016765D4FEA134506FBDA
:1019A00005F7C7F1807706FB07F74FEAD737A7FBA4
:1019B00003687642C8F58038A7FB06CE38BFA8F189
:1019C000010807FB08E64FF0000EA6FB028CE6FBC1
:1019D00003CEDCF1000CCEF1004E38BFAEF1010EAB
:1019E000A6FB0C584FF000074FF00005E6FB0E87F2
:1019F000A1FB08C6A0FB07CE16EB0E0645F10005BD
:101A0000E1FB076515F1E04E7EBFA4F580345FEA87
:101A100046066D4116F1800745F100054FEA17278C
:101A20004FEA066647EA0567A6F1DE46B6F1805F33
:101A30004FEA15251FD9384624F0010C05EBC47177
:101A4000BCF1FE6F01EB0C1102D8F0BCBDE80081C7
:101A500024425CBF01F5801E9EEAC47F02D4F0BC24
:101A6000BDE80081244238D4F0BCA1F1C041BDE8FA
:101A7000004100F0EDB94FEAD22242EA43524FEA68
:101A8000D323A7FB02864FEAD02040EA415007FB50
:101A900003661EEA0E0F4FEAD12105FB026658BF0E
:101AA000A6EB0056B6EB00564FEA520E4EEAC37E46
:101AB00018EB0E0E56EB530EBDD518EB02085E4127
:101AC0007F1C55F10005B6E74FF480154FF0000775
:101AD0004FF000064FF00008ADE7F0BC4FF00000FB
:101AE00001F1C04101F00041BDE8008111EA0C1F85
:101AF0000CEA131500D00CE013EA0C1F00F025804F
:101B00004FF00000F0BC81EA030101F00041BDE8A4
:101B10000081F0BCBDE8004181EA030100F098B902
:101B2000F0BCBDE8004170B500F044F9097EFC3E10
:101B300000F007B881EA03014FF0000001F0004116
:101B4000704781EA030100F083B9F0BCBDE80041B1
:101B50004FF0000021497047FFFDFBF9F7F5F4F263
:101B6000F0EEEDEBE9E8E6E4E3E1E0DEDDDBDAD838
:101B7000D7D5D4D3D1D0CFCDCCCBCAC8C7C6C5C496
:101B8000C2C1C0BFBEBDBCBBBAB9B8B7B6B5B4B3AD
:101B9000B2B1B0AFAEADACABAAA9A8A8A7A6A5A498
:101BA000A3A3A2A1A09F9F9E9D9C9C9B9A9999985C
:101BB0009797969595949393929191908F8F8E8EFF
:101BC0008D8C8C8B8B8A898988888787868585848C
:101BD00084838382828181800000FF070000F87F78
:101BE0004FEA1153A3F58063D3F11E03A8BFD3F1CD
:101BF000200C08DB4FF0004242EAC12252EA505268
:101C000032FA03F0704709420BD4102BC4BF0020F6
:101C1000704703F5787CBCF1FF3F05D04FF0FF30F3
:101C200070474FF00000704770B500F0C3F800BF78
:101C30004992248000207047F0E7B0FA80F310FA50
:101C400003F10AD0C3F11D0303F580634FEA41504D
:101C50004FEA035202EBD12170474FF0000070476A
:101C6000DFF848C170B51CEA111E1EBF1CEA13152F
:101C70009EEA0C0F95EA0C0F00F06F8081EA0304D6
:101C800023EA4C134EEAD47E21EA4C1141F4801130
:101C900043F48013AE44A1FB024CA0FB0365AEF1FC
:101CA0007F7E361955EB0C05A1FB034C4CF100036C
:101CB000A0FB021C16EB0C06654153F10003094220
:101CC00018BF46F0010613F4007F0BD14FEA033131
:101CD0004FEA0530340341EA155140EA16506FF0DF
:101CE00003020AE04FEAC3214FEAC520F40241EAA9
:101CF000555140EA56506FF0020202EB2E4201EBC2
:101D0000025585EACE710AD05FEA440C18BF24F070
:101D1000004450F1000041F1000120EAD47040F28B
:101D2000FE7C624500D270BDA84214BF4FF08044D3
:101D30004FF04044002E08BF0024BEF1806FA8BFC2
:101D4000A1F1C041BDE8704080F282804FF00000F8
:101D500001F1C04101F0004170479EEA0C0F0CEA0E
:101D6000131518BF95EA0C0F06D04FF0000081EA5A
:101D7000030E0EF0004170BD00F01CF88900013E1A
:101D800000F007B800F009B84FEA430C5FEA5C5C6A
:101D900008D081EA030100F05BB84FEA410C5FEA2A
:101DA0005C5CF6D14FF00000014970470000FF076E
:101DB0000000F87F0EF1020E2EF0030E5EF8046BA9
:101DC000364205D4012A43EB030515F5001F12D84E
:101DD000012841EB010C1CF5001F0CD80ED14FEA75
:101DE000D17C15F5001F0CEB4C0C0CF1020C08BF5C
:101DF0004CEBD37C04E04FF0080C01E04FEAD37CBD
:101E00000CEB4C0526FA05F606F00706B6F1040CB5
:101E100006D20EEB860CBDE870404CF0010C60471A
:101E2000DFE80CF0090B02024FF000414FF0000018
:101E3000A1F5002170BD19461046012851EB01049F
:101E400018BFD4F5001484BF002001F0004170BD1C
:101E50000808A0F500114FEA31017047014800F071
:101E6000B5B800BF0000C07F401058BFC0F140406F
:101E7000491058BFC1F140418142EFF300807047E3
:101E800010F0004148BF4042B0FA80F310FA03F26C
:101E9000C3F19D030BD051EAC35101EB122053064D
:101EA00038BF704700F1010008BF20F00100704703
:101EB000B0FA80F310FA03F2C3F19D030AD0D905FA
:101EC00001EB1220530638BF704700F1010008BF34
:101ED00020F001007047000050EA010C00F113806F
:101EE0001CF5000F58BFBCF5000F01D488427047A5
:101EF00007D710F5000F58BF11F5000F15D4884211
:101F00007047894270471CF5000F04D5BCF5000FDF
:101F1000F7D5814270474FF0807C1CEB400F38BFF3
:101F20001CEB410F01D28142704710B500F008F858
:101F3000922449004FF000504FF08051FFF794BFBA
:101F40000EF1020E2EF0030E5EF8044B244204D470
:101F50004FEA4102B2F17F4F11D84FEA4003B3F18B
:101F60007F4F0CD80ED14FEAD07CB2F17F4F0CEBF3
:101F70004C0C0CF1020C08BF4CEBD17C04E04FF090
:101F8000080C01E04FEAD17C0CEB4C0324FA03F47B
:101F900004F00704B4F1040C06D20EEB840CBDE887
:101FA00010404CF0010C6047DFE80CF0070802021B
:101FB0004FF00040A0F5800010BD0846420018BF59
:101FC000D2F1807288BF00F0004010BD0CF00F030A
:101FD000092B08BF082000F051800A2B0BD0082BDA
:101FE00018BF704708BF1CF0400F0AD04FF0000028
:101FF0004FF0000170471CF0400F18BF4FF0004039
:1020000070471CF0100F08D020F0704300F07F42A2
:1020100042EAD3014FEA4370704700F0604021F07C
:102020007F4242EA000201F07F4040EA727070474E
:102030004FF0FF0212EAD0521CBF92F0FF038B4216
:10204000C2BFD14200EBC1507047002A0AD0002B1A
:102050000BD0002900F00040A4BF40F0FE4040F447
:102060000000704700F00040704743024FF00B0C37
:1020700018BF4CF0806C7FF4F1AE70471CF4801FE9
:1020800011D01CF4E02F03D06FEACC314900704727
:102090004FF04050EFF3008222F0704242EA00021B
:1020A00082F3008870474FF0000070470000000086
:1020B000000000000000000000000000000000F828
:1020C00000000000000000333000000000100C068B
:1020D000100C0600000000000000000040C0784026
:1020E000C0784000043F04043F040400007088FCF2
:1020F00008300000001820FF211E0000F008F0004A
:10210000E018000000211C031E211E0000F00888BA
:10211000700000001E2123241927211010160E0024
:10212000000000000000000000000000000000E0CF
:1021300018040200000000071820400000020418E4
:10214000E00000000040201807000000404080F040
:10215000804040000202010F01020200000000F076
:10216000000000000101011F01010100000000004A
:102170000000000080B070000000000000000000BF
:102180000000000000010101010101010000000048
:1021900000000000003030000000000000000000DF
:1021A00080601804006018060100000000E01008BC
:1021B0000810E000000F102020100F00001010F891
:1021C000000000000020203F2020000000700808D0
:1021D0000888700000302824222130000030088850
:1021E000884830000018202020110E000000C02078
:1021F00010F8000000070424243F240000F8088899
:10220000880808000019212020110E0000E0108825
:1022100088180000000F112020110E000038080857
:10222000C83808000000003F000000000070880867
:1022300008887000001C222121221C0000E01008E8
:102240000810E0000000312222110F00000000C041
:10225000C0000000000000303000000000000080DE
:1022600000000000000080600000000000008040CE
:1022700020100800000102040810200040404040E7
:10228000404040000404040404040400000810203A
:10229000408000000020100804020100007048087F
:1022A0000808F0000000003036010000C030C828E7
:1022B000E810E0000718272423140B000000C038A2
:1022C000E0000000203C23020227382008F888881C
:1022D00088700000203F202020110E00C030080828
:1022E00008083800071820202010080008F80808FF
:1022F0000810E000203F202020100F0008F88888F8
:10230000E8081000203F20202320180008F88888C3
:10231000E8081000203F200003000000C03008083B
:102320000838000007182020221E020008F80800C4
:102330000008F808203F210101213F20000808F88B
:10234000080800000020203F2020000000000808AE
:10235000F8080800C08080807F00000008F888C06E
:1023600028180800203F20012638200008F808001F
:1023700000000000203F20202020300008F8F80056
:10238000F8F80800203F003F003F200008F830C068
:102390000008F808203F200007183F00E010080858
:1023A0000810E0000F10202020100F0008F8080887
:1023B0000808F000203F210101010000E01008089A
:1023C0000810E0000F18242438504F0008F88888BF
:1023D00088887000203F2000030C3020007088089F
:1023E000080838000038202121221C00180808F8AD
:1023F000080818000000203F2000000008F808002E
:102400000008F808001F202020201F0008788800FE
:1024100000C83808000007380E010000F80800F86E
:102420000008F800033C0700073C03000818688018
:102430008068180820302C03032C30200838C8008E
:10244000C83808000000203F2000000010080808DD
:10245000C83808002038262120201800000000FE7F
:10246000020202000000007F40404000000C30C02B
:1024700000000000000000010638C0000002020257
:10248000FE000000004040407F0000000000040209
:102490000202040000000000000000000000000034
:1024A0000000000080808080808080800002020424
:1024B000000000000000000000000000000080801C
:1024C000808000000019242222223F2008F800808A
:1024D00080000000003F112020110E00000000804D
:1024E00080800000000E11202020110000000080DC
:1024F0008088F800000E112020103F20000080800E
:1025000080800000001F222222221300008080F021
:10251000888888180020203F20200000000080804C
:1025200080808000006B94949493600008F8008091
:1025300080800000203F210000203F2000809898EC
:10254000000000000020203F20200000000000804C
:102550009898000000C08080807F000008F800008C
:1025600080808000203F24022D302000000808F8E1
:10257000000000000020203F20200000808080809C
:1025800080808000203F20003F20003F808000802E
:1025900080800000203F210000203F20000080803C
:1025A00080800000001F202020201F0080800080ED
:1025B0008000000080FFA12020110E00000000809C
:1025C00080808000000E112020A0FF80808080008D
:1025D0008080800020203F212000010000008080BA
:1025E000808080000033242424241900008080E0AF
:1025F000808000000000001F20200000808000007C
:1026000000808000001F202020103F20808080005C
:102610000080808000010E3008060100808000806C
:10262000008080800F300C030C300F000080800091
:10263000808080000020312E0E31200080808000BC
:102640000080808080818E7018060100008080806C
:10265000808080000021302C22213000000000000A
:10266000807C020200000000003F404000000000AB
:10267000FF00000000000000FF0000000002027CDC
:10268000800000000040403F000000000006010103
:102690000202040400000000000000001F1D1F1EB5
:1026A0001F1E1F1F1E1F1E1FC8260008000000201F
:1026B000380000002801000800270008380000202A
:1026C0009006000044010008006300001900190092
:1026D0001900190019001900E90702000400100090
:1026E00027000D00010000000100000000000000B4
:1026F00000000000000000000000000000000000DA
:04000005080000ED02
:00000001FF
