:020000040800F2
:10000000B006002089010008A50B0008730800084D
:100010005D0A00081D0700086114000800000000C8
:100020000000000000000000000000006D1100084A
:100030007107000800000000D10E00080D14000830
:10004000A3010008A3010008A3010008A301000800
:10005000A3010008A3010008A3010008A3010008F0
:10006000A3010008A3010008A3010008A3010008E0
:10007000A3010008A3010008A3010008A3010008D0
:10008000A3010008A3010008A3010008A3010008C0
:10009000A3010008A3010008A3010008A3010008B0
:1000A000A3010008A3010008A3010008A3010008A0
:1000B000A3010008A3010008A3010008A301000890
:1000C000A3010008A3010008A3010008A301000880
:1000D000A3010008A3010008A3010008A301000870
:1000E000A3010008A3010008A301000800F002F822
:1000F00000F03AF80AA090E8000C82448344AAF188
:100100000107DA4501D100F02FF8AFF2090EBAE885
:100110000F0013F0010F18BFFB1A43F0010318473B
:10012000B4210000D4210000103A24BF78C878C15F
:10013000FAD8520724BF30C830C144BF04680C60ED
:10014000704700000023002400250026103A28BF35
:1001500078C1FBD8520728BF30C148BF0B60704739
:100160001FB51FBD10B510BD00F0C3F91146FFF754
:10017000F7FF01F077F900F0E1F903B4FFF7F2FFC0
:1001800003BC00F0E9F9000009488047094800472E
:10019000FEE7FEE7FEE7FEE7FEE7FEE7FEE7FEE737
:1001A000FEE7FEE704480549054A064B7047000094
:1001B00011140008ED000008B0000020B006002077
:1001C000B0020020B002002010B5203AC0F00B8031
:1001D000B1E81850203AA0E81850B1E81850A0E84B
:1001E0001850BFF4F5AF5FEA027C24BFB1E81850A5
:1001F000A0E8185044BF18C918C0BDE810405FEA15
:10020000827C24BF51F8043B40F8043B08BF704790
:10021000D20728BF31F8023B48BF11F8012B28BF95
:1002200020F8023B48BF00F8012B7047014900F05D
:10023000DDB800002000002010B503681C1404EB9A
:1002400021449BB289B2194494FBF2F302FB13439D
:1002500094FBF2F401EB034393FBF2F102FB113147
:1002600093FBF2F301E05B1E11440029FBDB01600C
:1002700003EB044010BDF0B504464FF0FF3585B0E8
:100280000068049060680290A0680390E0680190A4
:1002900020690090666906F18040B0F1004F7CD87B
:1002A0003C22002104A8FFF7C7FF3C22014602A818
:1002B000FFF7C2FF1822014603A8FFF7BDFF411E4A
:1002C00040F2B55201A8FFF7B7FF0C220746684677
:1002D0000021FFF7B1FF414B00EB870030440026BF
:1002E0007B4411E0511A01910099491C02290091A7
:1002F00002D00C2908D105E0810705D00199491CDD
:10030000019101E0401C00960099019A595C9142CC
:10031000E8DD0099012906D11C2A04D1810702D009
:100320000221CDE90016A0F146018B293CD2DDE97E
:100330000061002202E09F5C521C3944B242FADBA9
:10034000012E02DD820700D0491E40F2B55340F273
:100350006D16C21700EB927292105A4300F003031D
:1003600003FB062283070A4400D1521E039E02EBC0
:100370004203049F06EBC303029EC3EB031306EB89
:100380008303174E33441E149BB2C6EB0616C3EB11
:100390000313B60007EB830300E005E006EB13460A
:1003A00066F31F43360C02D0284605B0F0BD80C46A
:1003B000029E40C4039E40C4019E761C44F80C6B10
:1003C000009E44E902600720521C92FBF0F600FBFD
:1003D000162084E823001846E7E70000E41F000029
:1003E000A039CEFD704770477047000070B50C46CD
:1003F000016800204A1C3ED03C22B1FBF2F302FB14
:100400001313B1FBF2F12360B1FBF2F302FB131300
:10041000B1FBF2F118226360B1FBF2F302FB13139C
:10042000B1FBF2F146F2E0320A440721A360B2FBCD
:10043000F1F301FB132140F2B553B2FBF3F5A161D7
:10044000B2FBF3F103FB15228900B2F5B77F08D3A5
:100450009B10521EB2FBF3F52944B2FBF3F503FBEC
:1004600015220F4BE261616189077B440CD03B2A66
:100470000AD3521C08E02C21204600F013F801207A
:10048000E0600AE0521A401C195C9142FAD9521CF1
:10049000C4E903204FF0FF302062204670BD000009
:1004A0005A1E00004FF0000200B5134694469646CF
:1004B000203922BFA0E80C50A0E80C50B1F1200177
:1004C000BFF4F7AF090728BFA0E80C5048BF0CC025
:1004D0005DF804EB890028BF40F8042B08BF704783
:1004E00048BF20F8022B11F0804F18BF00F8012BF5
:1004F0007047754600F02CF8AE4605006946534635
:1005000020F00700854618B020B5FFF74BFEBDE888
:1005100020404FF000064FF000074FF000084FF06A
:10052000000B21F00701AC46ACE8C009ACE8C009FB
:10053000ACE8C009ACE8C0098D46704710B5044668
:10054000AFF300802046BDE81040FFF716BE000064
:10055000004870474C00002001491820ABBEFEE760
:1005600026000200704700002DE9F05F434DDFF8E0
:1005700010B100262878DFF80C81434C4FF4004975
:100580004FF4807A092833D14946404600F060F99B
:1005900058B904206870C82000F0EBF82089401C8E
:1005A00000B220813C2800D126815146584600F0F7
:1005B0004FF958B903206870C82000F0DAF8E088D5
:1005C000401C00B2E080182800D1E6804FF4804142
:1005D000404600F03DF958B905206870C82000F089
:1005E000C8F86089401C00B260813C2800D1668157
:1005F0002878082840D1A878012770B900F086FA39
:10060000224801882180418861808188A180C18839
:10061000E180008920816681AF704946404600F044
:1006200017F950B96F70C82000F0A3F86088401C1B
:1006300000B260800D2800D167805146584600F016
:1006400007F930B96E70C82000F093F82088401C7C
:1006500020804FF48041404600F0FAF800280BD18A
:1006600002206870C82000F084F8A088401C00B206
:10067000A080202800D1A780BDE8F09F00000020C6
:1006800000080140000C014014000020040000207C
:1006900010B58CB01548B0F90010A1F26C7106913C
:1006A000B0F90210491E0591B0F904100491B0F997
:1006B00006100391B0F908100291B0F90A000190F8
:1006C00001A8FFF7D8FD044600F06AFC00F5E14000
:1006D000A04201D100F046F80821054800F0B8F822
:1006E000002801D100F038F80CB010BD1400002033
:1006F000000C014008B503490844009000980088A8
:1007000008BD0000006C004008B5034A104400908A
:100710000098016008BD0000006C0040FEE700008A
:1007200038B50121082000F0E3FB10208DF803000C
:10073000C001ADF8000003208DF80200054C6946A9
:10074000204600F032F84FF48041204600F089F84E
:1007500038BD0000000C01400821014800F081B8BC
:10076000000C01401021014800F079B8000C014054
:10077000704700B502464FF47A7302E0184600F065
:1007800004F8521E501CF9D100BD00EBC000C1009E
:100790004FF0E02041610021816105210161016983
:1007A000C903FCD50421016170472DE9F041002205
:1007B000CC7804F00F03E40601D58C7823430C7841
:1007C0004FF00F0714F0FF0F4FF0010C1CD005681D
:1007D0000CFA02F40E882640A64211D1960007FAC0
:1007E00006F825EA080503FA06F848EA0505CE7872
:1007F000282E02D0482E02D002E0446100E00461BD
:10080000521C082AE4D305600A88FF2A1ED94568CD
:10081000002202F108060CFA06F40E882640A642D1
:1008200010D1960007FA06F825EA080503FA06F83B
:1008300048EA0505CE78282E00D14461CE78482EAE
:1008400000D10461521C082AE3D34560BDE8F08161
:100850000246002092680A4200D0012070474161A0
:10086000704701617047002A01D001617047416102
:100870007047FEE72DE9F05F494DDFF828B14A4F98
:1008800028780026494C4FF400494FF4807A062816
:100890003ED149463846FFF7DBFF4FF0010880B9EB
:1008A00085F80180C820FFF764FF00F02FF9608809
:1008B000401C00B260800D2801D1A4F8028000F035
:1008C0004BF951465846FFF7C3FF50B96E70C82028
:1008D000FFF74FFF00F01AF92088401C208000F03D
:1008E0003BF94FF480413846FFF7B2FF80B9022050
:1008F0006870C820FFF73DFF00F008F9A088401C91
:1009000000B2A080202801D1A4F8048000F024F9CE
:100910002878072842D149463846FFF799FF78B929
:1009200004206870C820FFF724FF00F0EFF820894A
:10093000401C00B220813C2800D1268100F00CF937
:1009400051465846FFF784FF78B903206870C820E5
:10095000FFF70FFF00F0DAF8E088401C00B2E080FB
:10096000182800D1E68000F0F7F84FF480413846AF
:10097000FFF76EFF002811D105206870C820FFF72F
:10098000F8FE00F0C3F86089401C00B260813C288A
:1009900000D16681BDE8F05F00F0DEB8BDE8F09FF1
:1009A0000000002000080140000C0140040000206D
:1009B0002DE9F8430121082000F09AFA48258DF826
:1009C00003504EF20800ADF8000003248DF80240F9
:1009D000204F69463846FFF7E8FE10268DF8036081
:1009E0004FF44470ADF800008DF802406946384677
:1009F000FFF7DBFE0121042000F07AFA8DF80350A6
:100A00002002ADF800008DF80240DFF84C80694606
:100A10004046FFF7CAFE8DF8036049F61E40ADF868
:100A200000008DF8024069464046FFF7BEFE0121F6
:100A3000102000F05DFA8DF803504FF46040ADF8DF
:100A400000008DF8024069463846FFF7AEFEBDE86B
:100A5000F8830000000C014000080140FEE70000A0
:100A600038B50121042000F043FA49F61E44ADF8E0
:100A7000004010208DF8030003208DF80200054D82
:100A800069462846FFF791FE21462846FFF7E7FE14
:100A900038BD00000008014010B50121080700F032
:100AA00019FA0121C80600F015FA012000F00AFA2F
:100AB0000420FFF71FFE4AF2A554A0421FD00120D8
:100AC00000F03CFA412000F021FA0128FAD100029E
:100AD00000F04EFA012000F045FA00F09FFA00F015
:100AE00095FA47F6FF7000F081FA00F08FFA00F0F7
:100AF00033F82146BDE810400420FFF705BE00F0A2
:100B00008DFABDE8104000F081BA000000B58DB04C
:100B100000F046FA00F5E1400C900CA8FFF786FBC8
:100B200001462C2201A8FFF74FFB0699094801F264
:100B30006C7101800599491C418004998180039959
:100B4000C180029901810199418100F05FFA0DB0E5
:100B500000BD00000400002000B58BB01048B0F9C3
:100B60000010A1F26C710591B0F90210491E0491B8
:100B7000B0F904100391B0F906100291B0F9081011
:100B80000191B0F90A0000906846FFF774FBA0F5E8
:100B9000E14000F01BFA00F039FA0BB000BD000094
:100BA00004000020704770B500250021284600F0A1
:100BB000F5F80024002000F073F9641CE4B2802CE6
:100BC000F8D36D1CEDB2082DEFD370BDF8B501213F
:100BD000082000F08DF914208DF8030003208DF813
:100BE00002004FF48074ADF800400B4E6946304669
:100BF000FFF7DBFD6500ADF8005069463046FFF7B2
:100C0000D4FD012221463046FFF72DFE0122294660
:100C10003046FFF728FEF8BD000C01402DE9F047F3
:100C200007460024134D4FF080094FF40078AE15AD
:100C300029FA04F23A4041462846FFF714FE012201
:100C400031462846FFF70FFE002231462846FFF7BF
:100C50000AFE641CE4B2082CEAD30122314628467D
:100C6000FFF701FE31462846BDE8F0470022FFF7B6
:100C7000FABD0000000C014070B501220B4D54027A
:100C800021462846FFF7EFFD01221602314628468D
:100C9000FFF7E9FD002221462846FFF7E4FD314633
:100CA0002846BDE870400022FFF7DDBD000C014082
:100CB00070B50A4D4FF40074002221462846FFF714
:100CC000D2FD012211022846FFF7CDFD214628461C
:100CD000BDE870400122FFF7C6BD0000000C0140D6
:100CE00010B500214FF47A720020401C9042FCD3D2
:100CF000491C9142F8D3FFF769FFAE2000F0BFF81E
:100D0000D52000F0BCF8802000F0B9F8A82000F051
:100D1000B6F83F2000F0B3F8D32000F0B0F8002080
:100D200000F0ADF8402000F0AAF8A12000F0A7F8EC
:100D3000C82000F0A4F8DA2000F0A1F8122000F09A
:100D40009EF8812000F09BF8CF2000F098F8D92081
:100D500000F095F8F12000F092F8DB2000F08FF819
:100D6000302000F08CF8A42000F089F8A62000F0D4
:100D700086F88D2000F083F8142000F080F8AF2072
:100D800000F07DF8BDE81040FFF70DBF03460120DD
:100D900000E05843491E4A1CFBD1704710B50C4671
:100DA00040F0B00000F06BF8102040EA141000F0A2
:100DB00066F804F00F00BDE8104000F060B80000D5
:100DC0002DE9F0411546491E461ECF007006F9B2C6
:100DD000000EFFF7E3FF00240E48203D00EB051551
:100DE000285D00F05DF8641CE4B2082CF8D3012003
:100DF00000EB4600F9B2C0B2FFF7D0FF002428197B
:100E0000007A00F04DF8641CE4B2082CF7D3BDE87A
:100E1000F0810000D81C00082DE9F04781460F46FC
:100E200090461E4600240A2512E0311B491E0A2066
:100E3000FFF7ACFFB8FBF0F2B2FBF5F005FB1022B8
:100E40003819C1B230324846FFF7BAFF641CE4B229
:100E5000B442EAD3BDE8F0872DE9F04107460D46DC
:100E60001646002406E02819C1B23846FFF7A8FF4D
:100E7000641CE4B2325D002AF5D1BDE8F08110B502
:100E80000446FFF7F9FE7820FFF7C8FE0020FFF7C1
:100E9000C5FE2046FFF7C2FEBDE81040FFF708BFC1
:100EA00010B50446FFF7E8FE7820FFF7B7FE4020B4
:100EB000FFF7B4FE2046FFF7B1FEBDE81040FFF794
:100EC000F7BE0000014908627047000000000E42B2
:100ED00070470000054A002903D0D1690143D16160
:100EE0007047D1698143D161704700000010024012
:100EF000054A002903D091690143916170479169C6
:100F000081439161704700000010024003460020B9
:100F10005909094A01290AD002290AD0516A03F065
:100F20001F02012393400B4200D00120704711683B
:100F3000F5E7116AF3E700000010024008490022BB
:100F40000A7001F82029012805D0042802D10520C3
:100F500081F820007047012081F8200070470000D0
:100F60002010024001490860704700003C044242E2
:100F700002490A6A02430A627047000000100240F8
:100F80000248018841F010010180704704280040A8
:100F90000248018821F010010180704704280040B8
:100FA000034800880249091F098840EA0140704748
:100FB0001C280040044800880007010B0248001D5F
:100FC00000880843704700001028004000B5024622
:100FD000FFF7D6FF0449100C0880081D02805DF859
:100FE00004EBFFF7D5BF00001828004000B502460B
:100FF000FFF7C6FF0449C2F303400880081D0280C2
:101000005DF804EBFFF7C4BF0828004002480188E0
:101010008906FCD570470000042800400448018878
:1010200021F00801018001880907FCD57047000004
:10103000042800402DE9F0470D464FF40051474881
:10104000FFF706FC012862D1C820FFF792FBDFF80A
:1010500010910C261F2799F800003B244FF0170829
:1010600008283FD009283DD03E48062D3AD2DFE877
:1010700005F00C0312251B304188491E09B241803E
:1010800001B94680FFF768FD2CE00188491E018008
:10109000FFF762FD26E08188491E09B2818001B90F
:1010A0008780FFF759FD1DE00189491E0AB20281C0
:1010B000521C00D10481FFF74FFD13E0C188491E87
:1010C00009B2C180491C01D1A0F80680FFF744FD98
:1010D00008E04189491E09B24181491C00D144817F
:1010E000FFF73AFD99F80000082801D009280ED131
:1010F0001D48062D0BD2DFE805F00C03102018293F
:101100004188491E09B24180002900D14680BDE8CE
:10111000F0870188491E0180F9E78188491E09B2DC
:1011200081800029F3D18780F1E70189491E09B246
:101130000181491CEBD10481E9E7C188491E09B24C
:10114000C180491CE3D1A0F80680E0E74189491E2F
:1011500009B24181491CDAD14481D8E7000C014031
:10116000000000200400002014000020704700F060
:1011700001B800000CB500220192009227480168D6
:1011800041F4803101604FF4A063016801F4003143
:1011900000910199491C0191009911B90199994255
:1011A000F3D10168890302D50121009100E000928A
:1011B0000099012930D11A490A6842F010020A60E8
:1011C0000A6822F003020A600A6842F002020A601A
:1011D0004168416041684160416841F4806141601B
:1011E000416821F47C114160416841F4E81141609B
:1011F000016841F08071016001688901FCD5416896
:1012000021F003014160416841F002014160416801
:10121000C1F381010229FAD10CBD00000010024087
:10122000002002402DE9F0414FF480612E4C4D002A
:101230008E004F01002819D001282BD002283DD064
:1012400003284FD12046FFF70CFB29462046FFF725
:1012500008FB31462046FFF702FB39462046FFF7E0
:10126000FEFABDE8F0410120FFF783BA2046FFF700
:10127000F6FA29462046FFF7F4FA31462046FFF7F2
:10128000F0FA39462046FFF7EAFABDE8F0410120BE
:10129000FFF76FBA2046FFF7E2FA29462046FFF72C
:1012A000DEFA31462046FFF7DCFA39462046FFF7E2
:1012B000D8FABDE8F0410120FFF75BBA2046FFF7FE
:1012C000D0FA29462046FFF7CAFA31462046FFF7F2
:1012D000C6FA39462046FFF7C4FABDE8F0410120BE
:1012E000FFF747BABDE8F0810008014010B52F4C68
:1012F00000281AD001282DD0022840D0032853D12D
:1013000002212046FFF7ADFA04212046FFF7A9FA93
:1013100008212046FFF7A3FA10212046FFF79FFA85
:10132000BDE810400120FFF724BA02212046FFF754
:1013300096FA04212046FFF794FA08212046FFF789
:1013400090FA10212046FFF78AFABDE810400120EC
:10135000FFF70FBA02212046FFF781FA0421204649
:10136000FFF77DFA08212046FFF77BFA102120467F
:10137000FFF777FABDE810400120FFF7FAB9022124
:101380002046FFF76EFA04212046FFF768FA08218D
:101390002046FFF764FA10212046FFF762FABDE805
:1013A00010400120FFF7E5B910BD00000008014022
:1013B00010B54FF400511348FFF74AFA002811D135
:1013C000C820FFF7D6F91048002102780B2A09D26D
:1013D000DFE802F0060808080808090C0F121600DA
:1013E0000621017010BD0721017010BD0821017098
:1013F00010BD0921017010BD81700A21017010BD5E
:10140000017010BD000C014000000020704700007A
:1014100010B50F48016841F00101016041680D4AB3
:101420001140416001680C4A11400160016821F4DB
:1014300080210160416821F4FE0141604FF41F01E9
:101440008160FFF794FE05494FF00060086010BD11
:10145000001002400000FFF8FFFFF6FE08ED00E07C
:10146000FEE70000FFF73CFCFFF716FBFFF7A0FAD2
:10147000FFF7F6FAFFF754F90121A7A20846FFF794
:10148000EBFCA9A201210220FFF7E6FCAAA20121A0
:101490000320FFF7E1FCAAA201210420FFF7DCFCF6
:1014A000DFF8A4B2A94DAA4CDFF8A88247F6FF776F
:1014B000DFF8A492DFF8A4A2FFF728FBFFF778FF7C
:1014C000FFF7D8F99BF800102078FFF7B3FDFFF77E
:1014D0004BF8FFF7DDF8207808282BD0092829D011
:1014E000B5F90020042306210120FFF795FCB5F98A
:1014F000022002230B210120FFF78EFCB5F9042006
:1015000002230E210120FFF787FC0223B5F90620F4
:1015100006211846FFF780FC0223B5F908200921AF
:101520001846FFF779FC0223B5F90A200C2118466A
:10153000FFF772FC207820B989A206210320FFF76B
:101540008BFC2078062804D188A206210320FFF70F
:1015500083FC2078072804D187A206210320FFF707
:101560007BFC20780A285DD186A206210320FFF7A4
:1015700073FC874EFFF71CFFFFF7C8FAFFF77AF9F5
:10158000B5F90020042306210120FFF745FCB5F939
:10159000022002230B210120FFF73EFCB5F90420B5
:1015A00002230E210120FFF737FC0223B5F90620A4
:1015B00006211846FFF730FC0223B5F9082009215F
:1015C0001846FFF729FC0223B5F90A200C2118461A
:1015D000FFF722FCFFF7EEFC381A00F06CFA00224D
:1015E0004B4600F0E3F80022534600F077FA00F093
:1015F00035FA02460A2306210420FFF70DFC307855
:10160000FFF774FE3078FFF70DFE96F90000401CDE
:10161000C11700EB917121F00301401A307020785E
:101620000A28A7D0207808282ED15AA20621032004
:10163000FFF712FCB8F90020042306210120FFF770
:10164000EBFBB8F9022002230B210120FFF7E4FB9A
:10165000B8F9042002230E210120FFF7DDFB02234D
:10166000B8F9062006211846FFF7D6FB0223B8F981
:10167000082009211846FFF7CFFB0223B8F90A20FA
:101680000C211846FFF7C8FB207809282ED144A268
:1016900006210320FFF7E0FBB8F900200423062110
:1016A0000120FFF7B9FBB8F9022002230B2101202A
:1016B000FFF7B2FBB8F9042002230E210120FFF747
:1016C000ABFB0223B8F9062006211846FFF7A4FB5E
:1016D0000223B8F9082009211846FFF79DFB0223D1
:1016E000B8F90A200C211846FFF796FBFFF762FCB9
:1016F000381A00F0E0F900224B4600F057F80022BB
:10170000534600F0EBF900F0A9F902460A2306213E
:101710000420FFF781FBCFE6446174653A585858BE
:10172000582D58582D58580054696D653A58583AF4
:1017300058583A58580000004D6F64653A00000050
:10174000446976203A0000000100002004000020D7
:101750000000002014000020C0FFDF4000388F4050
:101760004E4F4E452020202020200000444154456B
:10177000202020202020200054494D4520202020DA
:10178000202020004D5553494320202020202000B8
:1017900010000020414C41524D5F4441544520000F
:1017A000414C41524D5F54494D4520002DE9C04107
:1017B00030B4DFF8A0C23CEA111418BF3CEA13149D
:1017C00000F0EC8081EA03051CEA111444EAD574A8
:1017D00018BF1CEA131500F0C780A4EB05044FF0F6
:1017E000004545EAC12145EAC32341EA505143EA95
:1017F000525304F17F74994204F500344FEAC0203B
:101800004FEAC22208BF904200F09C804FEA136565
:101810000FF24016765D4FEA134506FB05F7C7F158
:10182000807706FB07F74FEAD737A7FB03687642B6
:10183000C8F58038A7FB06CE38BFA8F1010807FB22
:1018400008E64FF0000EA6FB028CE6FB03CEDCF1AF
:10185000000CCEF1004E38BFAEF1010EA6FB0C58C5
:101860004FF000074FF00005E6FB0E87A1FB08C60E
:10187000A0FB07CE16EB0E0645F10005E1FB076560
:1018800015F1E04E7EBFA4F580345FEA46066D4157
:1018900016F1800745F100054FEA17274FEA066663
:1018A00047EA0567A6F1DE46B6F1805F4FEA1525E7
:1018B0001FD9384624F0010C05EBC471BCF1FE6F52
:1018C00001EB0C1102D8F0BCBDE8008124425CBFE2
:1018D00001F5801E9EEAC47F02D4F0BCBDE8008101
:1018E000244238D4F0BCA1F1C041BDE8004100F071
:1018F000EDB94FEAD22242EA43524FEAD323A7FB83
:1019000002864FEAD02040EA415007FB03661EEAF8
:101910000E0F4FEAD12105FB026658BFA6EB005619
:10192000B6EB00564FEA520E4EEAC37E18EB0E0E8F
:1019300056EB530EBDD518EB02085E417F1C55F1E6
:101940000005B6E74FF480154FF000074FF0000692
:101950004FF00008ADE7F0BC4FF0000001F1C041CE
:1019600001F00041BDE8008111EA0C1F0CEA1315DB
:1019700000D00CE013EA0C1F00F025804FF00000AF
:10198000F0BC81EA030101F00041BDE80081F0BC38
:10199000BDE8004181EA030100F098B9F0BCBDE860
:1019A000004170B500F044F9097EFC3E00F007B834
:1019B00081EA03014FF0000001F00041704781EA25
:1019C000030100F083B9F0BCBDE800414FF0000016
:1019D00021497047FFFDFBF9F7F5F4F2F0EEEDEB6E
:1019E000E9E8E6E4E3E1E0DEDDDBDAD8D7D5D4D31D
:1019F000D1D0CFCDCCCBCAC8C7C6C5C4C2C1C0BF69
:101A0000BEBDBCBBBAB9B8B7B6B5B4B3B2B1B0AF6E
:101A1000AEADACABAAA9A8A8A7A6A5A4A3A3A2A152
:101A2000A09F9F9E9D9C9C9B9A999998979796950D
:101A300095949393929191908F8F8E8E8D8C8C8BA9
:101A40008B8A898988888787868585848483838231
:101A5000828181800000FF070000F87F4FEA115368
:101A6000A3F58063D3F11E03A8BFD3F1200C08DBDC
:101A70004FF0004242EAC12252EA505232FA03F0D9
:101A8000704709420BD4102BC4BF0020704703F5E8
:101A9000787CBCF1FF3F05D04FF0FF3070474FF02E
:101AA0000000704770B500F0C3F800BF4992248071
:101AB00000207047F0E7B0FA80F310FA03F10AD083
:101AC000C3F11D0303F580634FEA41504FEA03520F
:101AD00002EBD12170474FF000007047DFF848C19A
:101AE00070B51CEA111E1EBF1CEA13159EEA0C0FEE
:101AF00095EA0C0F00F06F8081EA030423EA4C138F
:101B00004EEAD47E21EA4C1141F4801143F4801353
:101B1000AE44A1FB024CA0FB0365AEF17F7E3619FB
:101B200055EB0C05A1FB034C4CF10003A0FB021C80
:101B300016EB0C06654153F10003094218BF46F04D
:101B4000010613F4007F0BD14FEA03314FEA053051
:101B5000340341EA155140EA16506FF003020AE0DF
:101B60004FEAC3214FEAC520F40241EA555140EA49
:101B700056506FF0020202EB2E4201EB025585EA4D
:101B8000CE710AD05FEA440C18BF24F0004450F133
:101B9000000041F1000120EAD47040F2FE7C624571
:101BA00000D270BDA84214BF4FF080444FF04044B3
:101BB000002E08BF0024BEF1806FA8BFA1F1C04174
:101BC000BDE8704080F282804FF0000001F1C0411A
:101BD00001F0004170479EEA0C0F0CEA131518BF84
:101BE00095EA0C0F06D04FF0000081EA030E0EF0CC
:101BF000004170BD00F01CF88900013E00F007B8FC
:101C000000F009B84FEA430C5FEA5C5C08D081EA57
:101C1000030100F05BB84FEA410C5FEA5C5CF6D16F
:101C20004FF00000014970470000FF070000F87FF7
:101C30000EF1020E2EF0030E5EF8046B364205D450
:101C4000012A43EB030515F5001F12D8012841EBCB
:101C5000010C1CF5001F0CD80ED14FEAD17C15F5F4
:101C6000001F0CEB4C0C0CF1020C08BF4CEBD37CAE
:101C700004E04FF0080C01E04FEAD37C0CEB4C057C
:101C800026FA05F606F00706B6F1040C06D20EEBAE
:101C9000860CBDE870404CF0010C6047DFE80CF0AA
:101CA000090B02024FF000414FF00000A1F50021A6
:101CB00070BD19461046012851EB010418BFD4F538
:101CC000001484BF002001F0004170BD0808A0F599
:101CD00000114FEA310170470000000000000000D1
:101CE0000000000000000000000000F800000000FC
:101CF000000000333000000000100C06100C06003D
:101D0000000000000000000040C07840C0784000A3
:101D1000043F04043F040400007088FC0830000005
:101D2000001820FF211E0000F008F000E01800005D
:101D300000211C031E211E0000F008887000000016
:101D40001E2123241927211010160E000000000068
:101D50000000000000000000000000E01804020085
:101D6000000000071820400000020418E0000000F6
:101D70000040201807000000404080F080404000F4
:101D80000202010F01020200000000F0000000004A
:101D90000101011F0101010000000000000000001E
:101DA00080B0700000000000000000000000000093
:101DB000000101010101010100000000000000001C
:101DC00000303000000000000000000080601804B7
:101DD000006018060100000000E010080810E00094
:101DE000000F102020100F00001010F8000000005D
:101DF0000020203F202000000070080808887000A4
:101E00000030282422213000003008888848300023
:101E10000018202020110E000000C02010F8000043
:101E200000070424243F240000F8088888080800DC
:101E30000019212020110E0000E0108888180000F1
:101E4000000F112020110E0000380808C8380800C3
:101E50000000003F00000000007088080888700043
:101E6000001C222121221C0000E010080810E000C4
:101E70000000312222110F00000000C0C00000004D
:101E80000000003030000000000000800000000072
:101E9000000080600000000000008040201008006A
:101EA0000001020408102000404040404040400033
:101EB000040404040404040000081020408000000E
:101EC0000020100804020100007048080808F00013
:101ED0000000003036010000C030C828E810E000E3
:101EE0000718272423140B000000C038E00000006E
:101EF000203C23020227382008F8888888700000D8
:101F0000203F202020110E00C030080808083800AB
:101F1000071820202010080008F808080810E00022
:101F2000203F202020100F0008F88888E8081000C3
:101F3000203F20202320180008F88888E808100097
:101F4000203F200003000000C030080808380000CF
:101F500007182020221E020008F808000008F808D0
:101F6000203F210101213F20000808F80808000057
:101F70000020203F2020000000000808F80808008A
:101F8000C08080807F00000008F888C02818080002
:101F9000203F20012638200008F80800000000003B
:101FA000203F20202020300008F8F800F8F8080032
:101FB000203F003F003F200008F830C00008F8082C
:101FC000203F200007183F00E01008080810E0003C
:101FD0000F10202020100F0008F808080808F00053
:101FE000203F210101010000E01008080810E00076
:101FF0000F18242438504F0008F88888888870000B
:10200000203F2000030C30200070880808083800AA
:102010000038202121221C00180808F808081800A0
:102020000000203F2000000008F808000008F80821
:10203000001F202020201F000878880000C83808D2
:10204000000007380E010000F80800F80008F8004A
:10205000033C0700073C03000818688080681808E4
:1020600020302C03032C30200838C800C838080062
:102070000000203F2000000010080808C8380800B1
:102080002038262120201800000000FE0202020055
:102090000000007F40404000000C30C00000000005
:1020A000000000010638C00000020202FE0000002D
:1020B000004040407F0000000000040202020400D3
:1020C0000000000000000000000000000000000010
:1020D00080808080808080800002020400000000F8
:1020E00000000000000000000000808080800000F0
:1020F0000019242222223F2008F8008080000000DE
:10210000003F112020110E000000008080800000A0
:10211000000E112020201100000000808088F800AF
:10212000000E112020103F200000808080800000E1
:10213000001F222222221300008080F08888881845
:102140000020203F20200000000080808080800050
:10215000006B94949493600008F8008080800000E5
:10216000203F210000203F200080989800000000C0
:102170000020203F202000000000008098980000F0
:1021800000C08080807F000008F800008080800010
:10219000203F24022D302000000808F80000000035
:1021A0000020203F202000008080808080808000F0
:1021B000203F20003F20003F808000808080000082
:1021C000203F210000203F20000080808080000010
:1021D000001F202020201F00808000808000000041
:1021E00080FFA12020110E00000000808080800070
:1021F000000E112020A0FF80808080008080800061
:1022000020203F212000010000008080808080008D
:102210000033242424241900008080E08080000002
:102220000000001F2020000080800000008080004F
:10223000001F202020103F208080800000808080B0
:1022400000010E3008060100808000800080808040
:102250000F300C030C300F00008080008080800065
:102260000020312E0E312000808080000080808090
:1022700080818E7018060100008080808080800040
:102280000021302C2221300000000000807C02025E
:1022900000000000003F404000000000FF00000080
:1022A00000000000FF0000000002027C800000002F
:1022B0000040403F0000000000060101020204044B
:1022C00000000000000000001F1D1F1E1F1E1F1F1A
:1022D0001E1F1E1FF4220008000000201400000032
:1022E0002801000808230008140000209C060000B4
:1022F0004401000800630000E90702000400100028
:0823000027000D0001000000A0
:04000005080000ED02
:00000001FF
