:0300000002098072
:0C098000787FE4F6D8FD75810E0209C7EF
:10080000000000FF00013E01221122092205E2033F
:100810002205220922113E410081007F00000000D4
:100820005E00507E50425F2250225012DE930060E4
:10083000FE1F02000200FE3F004000400078000062
:10084000200110012C01E77F242124118010901039
:100850004C155715A4FF54154C158410801000003A
:1008600000000006800540243024F83F00240024C6
:100870000000E00F1010082008201010E00F00000A
:100880000000701C8822082108218822701C0000AA
:100890000000000000000000000000000000000058
:1008A0000000000000000000000000000000000048
:1008B0000000000000000000000000000000000038
:1008C000000070300828082408220821F0300000B9
:1008D00000000006800540243024F83F0024002456
:1008E0000000000100010001000100010001000002
:1008F0000000E00F1010082008201010E00F00008A
:100900000000E00F1011882088209020001F0000B8
:1009100000000001000100010001000100010000D1
:100920000000E00F1010082008201010E00F000059
:10093000000030180820082108218822701C0000BF
:1009400000000000000000000000000000000000A7
:100950000000000000000000000000000000000097
:100960000000000000000000000000000000000087
:100970000000000000000000000000000000000077
:030B3B00010E06A2
:100B2300E5806006E4FFFE120A0CE580640160F0D4
:080B3300E4FFFE120A7580E8E0
:060B04003EF583E493FFBF
:100B0A00E4FDFCEF25E0FF92B1C2B0D2B00DBD000A
:080B1A00010CED64084C70EBC6
:010B220022B0
:060ADE00D2B27F017E0090
:100AE400E4FDFCC3ED9FEC9E5015E4FBFA0BBB0048
:0F0AF400010AEB64644A70F50DBD00010C80E44B
:010B030022CF
:040A0C008E088F09B8
:100A1000E4F50A750B08E4F9C2B27B06E50925E0A6
:100A2000FDE50833FCE975F002A42DFDE5F03CFC82
:100A3000EB75F020A42DFFE5F03CCF24E0F50DEFA1
:100A400034FFF50CFE7401250DF5827408120B04B9
:100A50007400250DF5827408350C120B05DBBD857D
:100A60000B90050B120ADE09B910AD050AE50AC3A1
:040A70009405409F0A
:010A7400225F
:040A75008E088F094F
:100A7900E4F50A750B08E4F9C2B27B06E50925E03D
:100A8900FDE50833FCE975F002A42DFDE5F03CFC19
:100A9900EB75F020A42DFFE5F03CCF24E0F50DEF38
:100AA90034FFF50CFE74C1250DF5827408120B0490
:100AB90074C0250DF5827408350C120B05DBBD8554
:100AC9000B90050B120ADE09B910AD050AE50AC338
:040AD9009405409FA1
:010ADD0022F6
:10098C00020B23E493A3F8E493A34003F68001F253
:10099C0008DFF48029E493A3F85407240CC8C3336C
:1009AC00C4540F4420C8834004F456800146F6DF3B
:1009BC00E4800B0102040810204080900B3BE47E85
:1009CC00019360BCA3FF543F30E509541FFEE49330
:1009DC00A360010ECF54C025E060A840B8E493A3F7
:1009EC00FAE493A3F8E493A3C8C582C8CAC583CA22
:1009FC00F0A3C8C582C8CAC583CADFE9DEE780BEDA
:010B3E0000B6
:00000001FF
